{
  "_format": "hh-sol-artifact-1",
  "contractName": "LastClickPool",
  "sourceName": "contracts/LastClickPool.sol",
  "abi": [
    {
      "inputs": [],
      "stateMutability": "payable",
      "type": "constructor"
    },
    {
      "anonymous": false,
      "inputs": [
        {
          "indexed": true,
          "internalType": "address",
          "name": "who",
          "type": "address"
        },
        {
          "indexed": false,
          "internalType": "uint256",
          "name": "time",
          "type": "uint256"
        },
        {
          "indexed": false,
          "internalType": "uint256",
          "name": "round",
          "type": "uint256"
        }
      ],
      "name": "Click",
      "type": "event"
    },
    {
      "anonymous": false,
      "inputs": [
        {
          "indexed": true,
          "internalType": "address",
          "name": "winner",
          "type": "address"
        },
        {
          "indexed": false,
          "internalType": "uint256",
          "name": "amount",
          "type": "uint256"
        },
        {
          "indexed": false,
          "internalType": "uint256",
          "name": "round",
          "type": "uint256"
        }
      ],
      "name": "Payout",
      "type": "event"
    },
    {
      "inputs": [],
      "name": "claimWinner",
      "outputs": [],
      "stateMutability": "nonpayable",
      "type": "function"
    },
    {
      "inputs": [],
      "name": "click",
      "outputs": [],
      "stateMutability": "payable",
      "type": "function"
    },
    {
      "inputs": [],
      "name": "getRoundInfo",
      "outputs": [
        {
          "internalType": "uint256",
          "name": "start",
          "type": "uint256"
        },
        {
          "internalType": "uint256",
          "name": "end",
          "type": "uint256"
        },
        {
          "internalType": "uint256",
          "name": "index",
          "type": "uint256"
        }
      ],
      "stateMutability": "view",
      "type": "function"
    },
    {
      "inputs": [],
      "name": "lastClickTime",
      "outputs": [
        {
          "internalType": "uint256",
          "name": "",
          "type": "uint256"
        }
      ],
      "stateMutability": "view",
      "type": "function"
    },
    {
      "inputs": [],
      "name": "lastClicker",
      "outputs": [
        {
          "internalType": "address",
          "name": "",
          "type": "address"
        }
      ],
      "stateMutability": "view",
      "type": "function"
    },
    {
      "inputs": [],
      "name": "owner",
      "outputs": [
        {
          "internalType": "address",
          "name": "",
          "type": "address"
        }
      ],
      "stateMutability": "view",
      "type": "function"
    },
    {
      "inputs": [],
      "name": "roundEnd",
      "outputs": [
        {
          "internalType": "uint256",
          "name": "",
          "type": "uint256"
        }
      ],
      "stateMutability": "view",
      "type": "function"
    },
    {
      "inputs": [],
      "name": "roundIndex",
      "outputs": [
        {
          "internalType": "uint256",
          "name": "",
          "type": "uint256"
        }
      ],
      "stateMutability": "view",
      "type": "function"
    },
    {
      "inputs": [],
      "name": "roundStart",
      "outputs": [
        {
          "internalType": "uint256",
          "name": "",
          "type": "uint256"
        }
      ],
      "stateMutability": "view",
      "type": "function"
    },
    {
      "inputs": [],
      "name": "seed",
      "outputs": [],
      "stateMutability": "payable",
      "type": "function"
    },
    {
      "stateMutability": "payable",
      "type": "receive"
    }
  ],
  "bytecode": "0x6080604052336000806101000a81548173ffffffffffffffffffffffffffffffffffffffff021916908373ffffffffffffffffffffffffffffffffffffffff16021790555062000055426200005b60201b60201c565b6200023a565b6200006c81620000ee60201b60201c565b60038190555060786003546200008391906200014d565b6004819055506102586003546200009b9190620001b7565b6005819055506000600160006101000a81548173ffffffffffffffffffffffffffffffffffffffff021916908373ffffffffffffffffffffffffffffffffffffffff160217905550600060028190555050565b60006102588083620001019190620001b7565b6200010d9190620001ef565b9050919050565b6000819050919050565b7f4e487b7100000000000000000000000000000000000000000000000000000000600052601160045260246000fd5b60006200015a8262000114565b9150620001678362000114565b92508282019050808211156200018257620001816200011e565b5b92915050565b7f4e487b7100000000000000000000000000000000000000000000000000000000600052601260045260246000fd5b6000620001c48262000114565b9150620001d18362000114565b925082620001e457620001e362000188565b5b828204905092915050565b6000620001fc8262000114565b9150620002098362000114565b9250828202620002198162000114565b915082820484148315176200023357620002326200011e565b5b5092915050565b610baf806200024a6000396000f3fe6080604052600436106100955760003560e01c80637d94792a116100595780637d94792a1461014357806384bc76a61461014d5780638da5cb5b1461017a578063a0cd69db146101a5578063c02e580e146101d05761009c565b8063237297a4146100a157806340365852146100b85780635c2b2cfa146100e3578063648036ae1461010e5780637d55923d146101395761009c565b3661009c57005b600080fd5b3480156100ad57600080fd5b506100b66101fb565b005b3480156100c457600080fd5b506100cd61047a565b6040516100da91906106be565b60405180910390f35b3480156100ef57600080fd5b506100f8610480565b604051610105919061071a565b60405180910390f35b34801561011a57600080fd5b506101236104a6565b60405161013091906106be565b60405180910390f35b6101416104ac565b005b61014b6105b1565b005b34801561015957600080fd5b506101626105b3565b60405161017193929190610735565b60405180910390f35b34801561018657600080fd5b5061018f6105cc565b60405161019c919061071a565b60405180910390f35b3480156101b157600080fd5b506101ba6105f0565b6040516101c791906106be565b60405180910390f35b3480156101dc57600080fd5b506101e56105f6565b6040516101f291906106be565b60405180910390f35b600454421161023f576040517f08c379a0000000000000000000000000000000000000000000000000000000008152600401610236906107c9565b60405180910390fd5b61025860035461024f9190610818565b4210610290576040517f08c379a000000000000000000000000000000000000000000000000000000000815260040161028790610898565b60405180910390fd5b6000600160009054906101000a900473ffffffffffffffffffffffffffffffffffffffff169050600073ffffffffffffffffffffffffffffffffffffffff168173ffffffffffffffffffffffffffffffffffffffff1603610326576040517f08c379a000000000000000000000000000000000000000000000000000000000815260040161031d90610904565b60405180910390fd5b60004790506000811161036e576040517f08c379a000000000000000000000000000000000000000000000000000000000815260040161036590610970565b60405180910390fd5b610377426105fc565b60008273ffffffffffffffffffffffffffffffffffffffff168260405161039d906109c1565b60006040518083038185875af1925050503d80600081146103da576040519150601f19603f3d011682016040523d82523d6000602084013e6103df565b606091505b5050905080610423576040517f08c379a000000000000000000000000000000000000000000000000000000000815260040161041a90610a22565b60405180910390fd5b8273ffffffffffffffffffffffffffffffffffffffff167f634235fcf5af0adbca1a405ec65f6f6c08f55e1f379c2c45cd10f23cb29e0e318360055460405161046d929190610a42565b60405180910390a2505050565b60035481565b600160009054906101000a900473ffffffffffffffffffffffffffffffffffffffff1681565b60055481565b6102586003546104bc9190610818565b42106104cc576104cb426105fc565b5b60045442116105745733600160006101000a81548173ffffffffffffffffffffffffffffffffffffffff021916908373ffffffffffffffffffffffffffffffffffffffff160217905550426002819055503373ffffffffffffffffffffffffffffffffffffffff167f8bd221629797d0ca15bb69aa1fea119459c4ed1f3a1d739da84983f6e7da76bb42600554604051610567929190610a42565b60405180910390a26105af565b6040517f08c379a00000000000000000000000000000000000000000000000000000000081526004016105a690610ab7565b60405180910390fd5b565b565b6000806000600354600454600554925092509250909192565b60008054906101000a900473ffffffffffffffffffffffffffffffffffffffff1681565b60025481565b60045481565b61060581610683565b600381905550607860035461061a9190610818565b6004819055506102586003546106309190610b06565b6005819055506000600160006101000a81548173ffffffffffffffffffffffffffffffffffffffff021916908373ffffffffffffffffffffffffffffffffffffffff160217905550600060028190555050565b600061025880836106949190610b06565b61069e9190610b37565b9050919050565b6000819050919050565b6106b8816106a5565b82525050565b60006020820190506106d360008301846106af565b92915050565b600073ffffffffffffffffffffffffffffffffffffffff82169050919050565b6000610704826106d9565b9050919050565b610714816106f9565b82525050565b600060208201905061072f600083018461070b565b92915050565b600060608201905061074a60008301866106af565b61075760208301856106af565b61076460408301846106af565b949350505050565b600082825260208201905092915050565b7f6163746976650000000000000000000000000000000000000000000000000000600082015250565b60006107b360068361076c565b91506107be8261077d565b602082019050919050565b600060208201905081810360008301526107e2816107a6565b9050919050565b7f4e487b7100000000000000000000000000000000000000000000000000000000600052601160045260246000fd5b6000610823826106a5565b915061082e836106a5565b9250828201905080821115610846576108456107e9565b5b92915050565b7f726f756e6420726f746174656400000000000000000000000000000000000000600082015250565b6000610882600d8361076c565b915061088d8261084c565b602082019050919050565b600060208201905081810360008301526108b181610875565b9050919050565b7f6e6f2077696e6e65720000000000000000000000000000000000000000000000600082015250565b60006108ee60098361076c565b91506108f9826108b8565b602082019050919050565b6000602082019050818103600083015261091d816108e1565b9050919050565b7f6e6f2066756e6473000000000000000000000000000000000000000000000000600082015250565b600061095a60088361076c565b915061096582610924565b602082019050919050565b600060208201905081810360008301526109898161094d565b9050919050565b600081905092915050565b50565b60006109ab600083610990565b91506109b68261099b565b600082019050919050565b60006109cc8261099e565b9150819050919050565b7f7472616e73666572206661696c65640000000000000000000000000000000000600082015250565b6000610a0c600f8361076c565b9150610a17826109d6565b602082019050919050565b60006020820190508181036000830152610a3b816109ff565b9050919050565b6000604082019050610a5760008301856106af565b610a6460208301846106af565b9392505050565b7f696e6163746976652077696e646f770000000000000000000000000000000000600082015250565b6000610aa1600f8361076c565b9150610aac82610a6b565b602082019050919050565b60006020820190508181036000830152610ad081610a94565b9050919050565b7f4e487b7100000000000000000000000000000000000000000000000000000000600052601260045260246000fd5b6000610b11826106a5565b9150610b1c836106a5565b925082610b2c57610b2b610ad7565b5b828204905092915050565b6000610b42826106a5565b9150610b4d836106a5565b9250828202610b5b816106a5565b91508282048414831517610b7257610b716107e9565b5b509291505056fea264697066735822122018f1aa44e8af639ec170a8ccda0f831ead3d90b2d93066fb9809dd6fdbf51bbf64736f6c63430008140033",
  "linkReferences": {},
  "deployedLinkReferences": {}
}