{
  "_format": "hh-sol-artifact-1",
  "contractName": "LastClickPoolVRF",
  "sourceName": "contracts/LastClickPoolVRF.sol",
  "abi": [
    {
      "inputs": [
        {
          "internalType": "address",
          "name": "vrfCoordinator",
          "type": "address"
        },
        {
          "internalType": "bytes32",
          "name": "_keyHash",
          "type": "bytes32"
        },
        {
          "internalType": "uint64",
          "name": "_subId",
          "type": "uint64"
        }
      ],
      "stateMutability": "nonpayable",
      "type": "constructor"
    },
    {
      "inputs": [
        {
          "internalType": "address",
          "name": "have",
          "type": "address"
        },
        {
          "internalType": "address",
          "name": "want",
          "type": "address"
        }
      ],
      "name": "OnlyCoordinatorCanFulfill",
      "type": "error"
    },
    {
      "anonymous": false,
      "inputs": [
        {
          "indexed": true,
          "internalType": "address",
          "name": "who",
          "type": "address"
        },
        {
          "indexed": false,
          "internalType": "uint256",
          "name": "time",
          "type": "uint256"
        },
        {
          "indexed": false,
          "internalType": "uint256",
          "name": "round",
          "type": "uint256"
        }
      ],
      "name": "Click",
      "type": "event"
    },
    {
      "anonymous": false,
      "inputs": [
        {
          "indexed": true,
          "internalType": "address",
          "name": "winner",
          "type": "address"
        },
        {
          "indexed": false,
          "internalType": "uint256",
          "name": "amount",
          "type": "uint256"
        },
        {
          "indexed": false,
          "internalType": "uint256",
          "name": "round",
          "type": "uint256"
        }
      ],
      "name": "Payout",
      "type": "event"
    },
    {
      "anonymous": false,
      "inputs": [
        {
          "indexed": false,
          "internalType": "uint256",
          "name": "requestId",
          "type": "uint256"
        },
        {
          "indexed": false,
          "internalType": "uint256",
          "name": "randomOffset",
          "type": "uint256"
        }
      ],
      "name": "RandomFulfilled",
      "type": "event"
    },
    {
      "anonymous": false,
      "inputs": [
        {
          "indexed": false,
          "internalType": "uint256",
          "name": "requestId",
          "type": "uint256"
        }
      ],
      "name": "RandomRequested",
      "type": "event"
    },
    {
      "inputs": [],
      "name": "COORD",
      "outputs": [
        {
          "internalType": "contract VRFCoordinatorV2Interface",
          "name": "",
          "type": "address"
        }
      ],
      "stateMutability": "view",
      "type": "function"
    },
    {
      "inputs": [],
      "name": "callbackGasLimit",
      "outputs": [
        {
          "internalType": "uint32",
          "name": "",
          "type": "uint32"
        }
      ],
      "stateMutability": "view",
      "type": "function"
    },
    {
      "inputs": [],
      "name": "claimWinner",
      "outputs": [],
      "stateMutability": "nonpayable",
      "type": "function"
    },
    {
      "inputs": [],
      "name": "click",
      "outputs": [],
      "stateMutability": "payable",
      "type": "function"
    },
    {
      "inputs": [],
      "name": "getRoundInfo",
      "outputs": [
        {
          "internalType": "uint256",
          "name": "start",
          "type": "uint256"
        },
        {
          "internalType": "uint256",
          "name": "end",
          "type": "uint256"
        },
        {
          "internalType": "uint256",
          "name": "index",
          "type": "uint256"
        },
        {
          "internalType": "uint256",
          "name": "rndOffset",
          "type": "uint256"
        }
      ],
      "stateMutability": "view",
      "type": "function"
    },
    {
      "inputs": [],
      "name": "keyHash",
      "outputs": [
        {
          "internalType": "bytes32",
          "name": "",
          "type": "bytes32"
        }
      ],
      "stateMutability": "view",
      "type": "function"
    },
    {
      "inputs": [],
      "name": "lastClickTime",
      "outputs": [
        {
          "internalType": "uint256",
          "name": "",
          "type": "uint256"
        }
      ],
      "stateMutability": "view",
      "type": "function"
    },
    {
      "inputs": [],
      "name": "lastClicker",
      "outputs": [
        {
          "internalType": "address",
          "name": "",
          "type": "address"
        }
      ],
      "stateMutability": "view",
      "type": "function"
    },
    {
      "inputs": [],
      "name": "lastRequestId",
      "outputs": [
        {
          "internalType": "uint256",
          "name": "",
          "type": "uint256"
        }
      ],
      "stateMutability": "view",
      "type": "function"
    },
    {
      "inputs": [],
      "name": "owner",
      "outputs": [
        {
          "internalType": "address",
          "name": "",
          "type": "address"
        }
      ],
      "stateMutability": "view",
      "type": "function"
    },
    {
      "inputs": [],
      "name": "randomOffset",
      "outputs": [
        {
          "internalType": "uint256",
          "name": "",
          "type": "uint256"
        }
      ],
      "stateMutability": "view",
      "type": "function"
    },
    {
      "inputs": [
        {
          "internalType": "uint256",
          "name": "requestId",
          "type": "uint256"
        },
        {
          "internalType": "uint256[]",
          "name": "randomWords",
          "type": "uint256[]"
        }
      ],
      "name": "rawFulfillRandomWords",
      "outputs": [],
      "stateMutability": "nonpayable",
      "type": "function"
    },
    {
      "inputs": [],
      "name": "requestConfirmations",
      "outputs": [
        {
          "internalType": "uint16",
          "name": "",
          "type": "uint16"
        }
      ],
      "stateMutability": "view",
      "type": "function"
    },
    {
      "inputs": [],
      "name": "requestRandomOffset",
      "outputs": [
        {
          "internalType": "uint256",
          "name": "requestId",
          "type": "uint256"
        }
      ],
      "stateMutability": "nonpayable",
      "type": "function"
    },
    {
      "inputs": [],
      "name": "roundEnd",
      "outputs": [
        {
          "internalType": "uint256",
          "name": "",
          "type": "uint256"
        }
      ],
      "stateMutability": "view",
      "type": "function"
    },
    {
      "inputs": [],
      "name": "roundIndex",
      "outputs": [
        {
          "internalType": "uint256",
          "name": "",
          "type": "uint256"
        }
      ],
      "stateMutability": "view",
      "type": "function"
    },
    {
      "inputs": [],
      "name": "roundStart",
      "outputs": [
        {
          "internalType": "uint256",
          "name": "",
          "type": "uint256"
        }
      ],
      "stateMutability": "view",
      "type": "function"
    },
    {
      "inputs": [],
      "name": "seed",
      "outputs": [],
      "stateMutability": "payable",
      "type": "function"
    },
    {
      "inputs": [
        {
          "internalType": "uint32",
          "name": "g",
          "type": "uint32"
        }
      ],
      "name": "setCallbackGasLimit",
      "outputs": [],
      "stateMutability": "nonpayable",
      "type": "function"
    },
    {
      "inputs": [
        {
          "internalType": "uint64",
          "name": "s",
          "type": "uint64"
        }
      ],
      "name": "setSubscriptionId",
      "outputs": [],
      "stateMutability": "nonpayable",
      "type": "function"
    },
    {
      "inputs": [],
      "name": "subscriptionId",
      "outputs": [
        {
          "internalType": "uint64",
          "name": "",
          "type": "uint64"
        }
      ],
      "stateMutability": "view",
      "type": "function"
    },
    {
      "stateMutability": "payable",
      "type": "receive"
    }
  ],
  "bytecode": "0x60a060405262030d40600260006101000a81548163ffffffff021916908363ffffffff1602179055506003600260046101000a81548161ffff021916908361ffff1602179055503480156200005357600080fd5b5060405162001dab38038062001dab833981810160405281019062000079919062000325565b828073ffffffffffffffffffffffffffffffffffffffff1660808173ffffffffffffffffffffffffffffffffffffffff168152505050826000806101000a81548173ffffffffffffffffffffffffffffffffffffffff021916908373ffffffffffffffffffffffffffffffffffffffff1602179055508160018190555080600060146101000a81548167ffffffffffffffff021916908367ffffffffffffffff16021790555033600260066101000a81548173ffffffffffffffffffffffffffffffffffffffff021916908373ffffffffffffffffffffffffffffffffffffffff16021790555062000171426200017a60201b60201c565b505050620004a7565b6200018b816200021560201b60201c565b6005819055506078600554620001a29190620003ba565b600681905550610258600554620001ba919062000424565b6007819055506000600360006101000a81548173ffffffffffffffffffffffffffffffffffffffff021916908373ffffffffffffffffffffffffffffffffffffffff1602179055506000600481905550600060088190555050565b6000610258808362000228919062000424565b6200023491906200045c565b9050919050565b600080fd5b600073ffffffffffffffffffffffffffffffffffffffff82169050919050565b60006200026d8262000240565b9050919050565b6200027f8162000260565b81146200028b57600080fd5b50565b6000815190506200029f8162000274565b92915050565b6000819050919050565b620002ba81620002a5565b8114620002c657600080fd5b50565b600081519050620002da81620002af565b92915050565b600067ffffffffffffffff82169050919050565b620002ff81620002e0565b81146200030b57600080fd5b50565b6000815190506200031f81620002f4565b92915050565b6000806000606084860312156200034157620003406200023b565b5b600062000351868287016200028e565b93505060206200036486828701620002c9565b925050604062000377868287016200030e565b9150509250925092565b6000819050919050565b7f4e487b7100000000000000000000000000000000000000000000000000000000600052601160045260246000fd5b6000620003c78262000381565b9150620003d48362000381565b9250828201905080821115620003ef57620003ee6200038b565b5b92915050565b7f4e487b7100000000000000000000000000000000000000000000000000000000600052601260045260246000fd5b6000620004318262000381565b91506200043e8362000381565b925082620004515762000450620003f5565b5b828204905092915050565b6000620004698262000381565b9150620004768362000381565b9250828202620004868162000381565b91508282048414831517620004a0576200049f6200038b565b5b5092915050565b6080516118e1620004ca600039600081816104a801526104fc01526118e16000f3fe60806040526004361061012e5760003560e01c8063648036ae116100ab578063a0cd69db1161006f578063a0cd69db1461036a578063a4eb718c14610395578063b0fb162f146103be578063c02e580e146103e9578063ea7b4f7714610414578063fc2a88c31461043d57610135565b8063648036ae146102d25780637d55923d146102fd5780637d94792a1461030757806384bc76a6146103115780638da5cb5b1461033f57610135565b80633060f84b116100f25780633060f84b146101fb5780633b238f561461022657806340365852146102515780635c2b2cfa1461027c57806361728f39146102a757610135565b806309c1ba2e1461013a5780630bd8922d146101655780631fe543e314610190578063237297a4146101b957806324f74697146101d057610135565b3661013557005b600080fd5b34801561014657600080fd5b5061014f610468565b60405161015c9190610db6565b60405180910390f35b34801561017157600080fd5b5061017a610482565b6040516101879190610e50565b60405180910390f35b34801561019c57600080fd5b506101b760048036038101906101b2919061100e565b6104a6565b005b3480156101c557600080fd5b506101ce610566565b005b3480156101dc57600080fd5b506101e561083d565b6040516101f29190611089565b60405180910390f35b34801561020757600080fd5b50610210610853565b60405161021d91906110b3565b60405180910390f35b34801561023257600080fd5b5061023b6109bc565b60405161024891906110b3565b60405180910390f35b34801561025d57600080fd5b506102666109c2565b60405161027391906110b3565b60405180910390f35b34801561028857600080fd5b506102916109c8565b60405161029e91906110ef565b60405180910390f35b3480156102b357600080fd5b506102bc6109ee565b6040516102c99190611123565b60405180910390f35b3480156102de57600080fd5b506102e76109f4565b6040516102f491906110b3565b60405180910390f35b6103056109fa565b005b61030f610aff565b005b34801561031d57600080fd5b50610326610b01565b604051610336949392919061113e565b60405180910390f35b34801561034b57600080fd5b50610354610b21565b60405161036191906110ef565b60405180910390f35b34801561037657600080fd5b5061037f610b47565b60405161038c91906110b3565b60405180910390f35b3480156103a157600080fd5b506103bc60048036038101906103b791906111af565b610b4d565b005b3480156103ca57600080fd5b506103d3610bcb565b6040516103e091906111f9565b60405180910390f35b3480156103f557600080fd5b506103fe610bdf565b60405161040b91906110b3565b60405180910390f35b34801561042057600080fd5b5061043b60048036038101906104369190611240565b610be5565b005b34801561044957600080fd5b50610452610c6b565b60405161045f91906110b3565b60405180910390f35b600060149054906101000a900467ffffffffffffffff1681565b60008054906101000a900473ffffffffffffffffffffffffffffffffffffffff1681565b7f000000000000000000000000000000000000000000000000000000000000000073ffffffffffffffffffffffffffffffffffffffff163373ffffffffffffffffffffffffffffffffffffffff161461055857337f00000000000000000000000000000000000000000000000000000000000000006040517f1cf993f400000000000000000000000000000000000000000000000000000000815260040161054f92919061126d565b60405180910390fd5b6105628282610c71565b5050565b6000600854116105ab576040517f08c379a00000000000000000000000000000000000000000000000000000000081526004016105a2906112f3565b60405180910390fd5b60006008546005546105bd9190611342565b9050804211610601576040517f08c379a00000000000000000000000000000000000000000000000000000000081526004016105f8906113c2565b60405180910390fd5b6102586005546106119190611342565b4210610652576040517f08c379a00000000000000000000000000000000000000000000000000000000081526004016106499061142e565b60405180910390fd5b6000600360009054906101000a900473ffffffffffffffffffffffffffffffffffffffff169050600073ffffffffffffffffffffffffffffffffffffffff168173ffffffffffffffffffffffffffffffffffffffff16036106e8576040517f08c379a00000000000000000000000000000000000000000000000000000000081526004016106df9061149a565b60405180910390fd5b600047905060008111610730576040517f08c379a000000000000000000000000000000000000000000000000000000000815260040161072790611506565b60405180910390fd5b61073942610ce2565b60008273ffffffffffffffffffffffffffffffffffffffff168260405161075f90611557565b60006040518083038185875af1925050503d806000811461079c576040519150601f19603f3d011682016040523d82523d6000602084013e6107a1565b606091505b50509050806107e5576040517f08c379a00000000000000000000000000000000000000000000000000000000081526004016107dc906115b8565b60405180910390fd5b8273ffffffffffffffffffffffffffffffffffffffff167f634235fcf5af0adbca1a405ec65f6f6c08f55e1f379c2c45cd10f23cb29e0e318360075460405161082f9291906115d8565b60405180910390a250505050565b600260009054906101000a900463ffffffff1681565b600060065442111561089a576040517f08c379a00000000000000000000000000000000000000000000000000000000081526004016108919061164d565b60405180910390fd5b60008054906101000a900473ffffffffffffffffffffffffffffffffffffffff1673ffffffffffffffffffffffffffffffffffffffff16635d3b1d30600154600060149054906101000a900467ffffffffffffffff16600260049054906101000a900461ffff16600260009054906101000a900463ffffffff1660016040518663ffffffff1660e01b81526004016109369594939291906116a8565b6020604051808303816000875af1158015610955573d6000803e3d6000fd5b505050506040513d601f19601f820116820180604052508101906109799190611710565b9050806009819055507ff81446731d23d202ea16cf590daf64c6087251171612b2adde6acbef4b375802816040516109b191906110b3565b60405180910390a190565b60085481565b60055481565b600360009054906101000a900473ffffffffffffffffffffffffffffffffffffffff1681565b60015481565b60075481565b610258600554610a0a9190611342565b4210610a1a57610a1942610ce2565b5b6006544211610ac25733600360006101000a81548173ffffffffffffffffffffffffffffffffffffffff021916908373ffffffffffffffffffffffffffffffffffffffff160217905550426004819055503373ffffffffffffffffffffffffffffffffffffffff167f8bd221629797d0ca15bb69aa1fea119459c4ed1f3a1d739da84983f6e7da76bb42600754604051610ab59291906115d8565b60405180910390a2610afd565b6040517f08c379a0000000000000000000000000000000000000000000000000000000008152600401610af490611789565b60405180910390fd5b565b565b600080600080600554600654600754600854935093509350935090919293565b600260069054906101000a900473ffffffffffffffffffffffffffffffffffffffff1681565b60045481565b600260069054906101000a900473ffffffffffffffffffffffffffffffffffffffff1673ffffffffffffffffffffffffffffffffffffffff163373ffffffffffffffffffffffffffffffffffffffff1614610ba757600080fd5b80600260006101000a81548163ffffffff021916908363ffffffff16021790555050565b600260049054906101000a900461ffff1681565b60065481565b600260069054906101000a900473ffffffffffffffffffffffffffffffffffffffff1673ffffffffffffffffffffffffffffffffffffffff163373ffffffffffffffffffffffffffffffffffffffff1614610c3f57600080fd5b80600060146101000a81548167ffffffffffffffff021916908367ffffffffffffffff16021790555050565b60095481565b6000607882600081518110610c8957610c886117a9565b5b6020026020010151610c9b9190611807565b9050806008819055507f8f8ec3920627e72cd4e3358c8a710531fbf3f75e40a11da842da17b5b348fbaa8382604051610cd59291906115d8565b60405180910390a1505050565b610ceb81610d71565b6005819055506078600554610d009190611342565b600681905550610258600554610d169190611838565b6007819055506000600360006101000a81548173ffffffffffffffffffffffffffffffffffffffff021916908373ffffffffffffffffffffffffffffffffffffffff1602179055506000600481905550600060088190555050565b60006102588083610d829190611838565b610d8c9190611869565b9050919050565b600067ffffffffffffffff82169050919050565b610db081610d93565b82525050565b6000602082019050610dcb6000830184610da7565b92915050565b600073ffffffffffffffffffffffffffffffffffffffff82169050919050565b6000819050919050565b6000610e16610e11610e0c84610dd1565b610df1565b610dd1565b9050919050565b6000610e2882610dfb565b9050919050565b6000610e3a82610e1d565b9050919050565b610e4a81610e2f565b82525050565b6000602082019050610e656000830184610e41565b92915050565b6000604051905090565b600080fd5b600080fd5b6000819050919050565b610e9281610e7f565b8114610e9d57600080fd5b50565b600081359050610eaf81610e89565b92915050565b600080fd5b6000601f19601f8301169050919050565b7f4e487b7100000000000000000000000000000000000000000000000000000000600052604160045260246000fd5b610f0382610eba565b810181811067ffffffffffffffff82111715610f2257610f21610ecb565b5b80604052505050565b6000610f35610e6b565b9050610f418282610efa565b919050565b600067ffffffffffffffff821115610f6157610f60610ecb565b5b602082029050602081019050919050565b600080fd5b6000610f8a610f8584610f46565b610f2b565b90508083825260208201905060208402830185811115610fad57610fac610f72565b5b835b81811015610fd65780610fc28882610ea0565b845260208401935050602081019050610faf565b5050509392505050565b600082601f830112610ff557610ff4610eb5565b5b8135611005848260208601610f77565b91505092915050565b6000806040838503121561102557611024610e75565b5b600061103385828601610ea0565b925050602083013567ffffffffffffffff81111561105457611053610e7a565b5b61106085828601610fe0565b9150509250929050565b600063ffffffff82169050919050565b6110838161106a565b82525050565b600060208201905061109e600083018461107a565b92915050565b6110ad81610e7f565b82525050565b60006020820190506110c860008301846110a4565b92915050565b60006110d982610dd1565b9050919050565b6110e9816110ce565b82525050565b600060208201905061110460008301846110e0565b92915050565b6000819050919050565b61111d8161110a565b82525050565b60006020820190506111386000830184611114565b92915050565b600060808201905061115360008301876110a4565b61116060208301866110a4565b61116d60408301856110a4565b61117a60608301846110a4565b95945050505050565b61118c8161106a565b811461119757600080fd5b50565b6000813590506111a981611183565b92915050565b6000602082840312156111c5576111c4610e75565b5b60006111d38482850161119a565b91505092915050565b600061ffff82169050919050565b6111f3816111dc565b82525050565b600060208201905061120e60008301846111ea565b92915050565b61121d81610d93565b811461122857600080fd5b50565b60008135905061123a81611214565b92915050565b60006020828403121561125657611255610e75565b5b60006112648482850161122b565b91505092915050565b600060408201905061128260008301856110e0565b61128f60208301846110e0565b9392505050565b600082825260208201905092915050565b7f6e6f2072616e646f6d2073657400000000000000000000000000000000000000600082015250565b60006112dd600d83611296565b91506112e8826112a7565b602082019050919050565b6000602082019050818103600083015261130c816112d0565b9050919050565b7f4e487b7100000000000000000000000000000000000000000000000000000000600052601160045260246000fd5b600061134d82610e7f565b915061135883610e7f565b92508282019050808211156113705761136f611313565b5b92915050565b7f6163746976650000000000000000000000000000000000000000000000000000600082015250565b60006113ac600683611296565b91506113b782611376565b602082019050919050565b600060208201905081810360008301526113db8161139f565b9050919050565b7f726f756e6420726f746174656400000000000000000000000000000000000000600082015250565b6000611418600d83611296565b9150611423826113e2565b602082019050919050565b600060208201905081810360008301526114478161140b565b9050919050565b7f6e6f2077696e6e65720000000000000000000000000000000000000000000000600082015250565b6000611484600983611296565b915061148f8261144e565b602082019050919050565b600060208201905081810360008301526114b381611477565b9050919050565b7f6e6f2066756e6473000000000000000000000000000000000000000000000000600082015250565b60006114f0600883611296565b91506114fb826114ba565b602082019050919050565b6000602082019050818103600083015261151f816114e3565b9050919050565b600081905092915050565b50565b6000611541600083611526565b915061154c82611531565b600082019050919050565b600061156282611534565b9150819050919050565b7f7472616e73666572206661696c65640000000000000000000000000000000000600082015250565b60006115a2600f83611296565b91506115ad8261156c565b602082019050919050565b600060208201905081810360008301526115d181611595565b9050919050565b60006040820190506115ed60008301856110a4565b6115fa60208301846110a4565b9392505050565b7f6e6f7420696e206163746976652077696e646f77000000000000000000000000600082015250565b6000611637601483611296565b915061164282611601565b602082019050919050565b600060208201905081810360008301526116668161162a565b9050919050565b6000819050919050565b600061169261168d6116888461166d565b610df1565b61106a565b9050919050565b6116a281611677565b82525050565b600060a0820190506116bd6000830188611114565b6116ca6020830187610da7565b6116d760408301866111ea565b6116e4606083018561107a565b6116f16080830184611699565b9695505050505050565b60008151905061170a81610e89565b92915050565b60006020828403121561172657611725610e75565b5b6000611734848285016116fb565b91505092915050565b7f696e6163746976652077696e646f770000000000000000000000000000000000600082015250565b6000611773600f83611296565b915061177e8261173d565b602082019050919050565b600060208201905081810360008301526117a281611766565b9050919050565b7f4e487b7100000000000000000000000000000000000000000000000000000000600052603260045260246000fd5b7f4e487b7100000000000000000000000000000000000000000000000000000000600052601260045260246000fd5b600061181282610e7f565b915061181d83610e7f565b92508261182d5761182c6117d8565b5b828206905092915050565b600061184382610e7f565b915061184e83610e7f565b92508261185e5761185d6117d8565b5b828204905092915050565b600061187482610e7f565b915061187f83610e7f565b925082820261188d81610e7f565b915082820484148315176118a4576118a3611313565b5b509291505056fea264697066735822122055a23c5e1b03ab0c92b2789b9c7d529dcc24b06f088347eb497a5773d91b551c64736f6c63430008140033",
  "linkReferences": {},
  "deployedLinkReferences": {}
}