{"contracts/LastClickPoolVRF.sol":{"LastClickPoolVRF":{"abi":[{"inputs":[{"internalType":"address","name":"vrfCoordinator","type":"address"},{"internalType":"bytes32","name":"_keyHash","type":"bytes32"},{"internalType":"uint64","name":"_subId","type":"uint64"}],"stateMutability":"nonpayable","type":"constructor"},{"inputs":[{"internalType":"address","name":"have","type":"address"},{"internalType":"address","name":"want","type":"address"}],"name":"OnlyCoordinatorCanFulfill","type":"error"},{"anonymous":false,"inputs":[{"indexed":true,"internalType":"address","name":"who","type":"address"},{"indexed":false,"internalType":"uint256","name":"time","type":"uint256"},{"indexed":false,"internalType":"uint256","name":"round","type":"uint256"}],"name":"Click","type":"event"},{"anonymous":false,"inputs":[{"indexed":true,"internalType":"address","name":"winner","type":"address"},{"indexed":false,"internalType":"uint256","name":"amount","type":"uint256"},{"indexed":false,"internalType":"uint256","name":"round","type":"uint256"}],"name":"Payout","type":"event"},{"anonymous":false,"inputs":[{"indexed":false,"internalType":"uint256","name":"requestId","type":"uint256"},{"indexed":false,"internalType":"uint256","name":"randomOffset","type":"uint256"}],"name":"RandomFulfilled","type":"event"},{"anonymous":false,"inputs":[{"indexed":false,"internalType":"uint256","name":"requestId","type":"uint256"}],"name":"RandomRequested","type":"event"},{"inputs":[],"name":"COORD","outputs":[{"internalType":"contract VRFCoordinatorV2Interface","name":"","type":"address"}],"stateMutability":"view","type":"function"},{"inputs":[],"name":"callbackGasLimit","outputs":[{"internalType":"uint32","name":"","type":"uint32"}],"stateMutability":"view","type":"function"},{"inputs":[],"name":"claimWinner","outputs":[],"stateMutability":"nonpayable","type":"function"},{"inputs":[],"name":"click","outputs":[],"stateMutability":"payable","type":"function"},{"inputs":[],"name":"getRoundInfo","outputs":[{"internalType":"uint256","name":"start","type":"uint256"},{"internalType":"uint256","name":"end","type":"uint256"},{"internalType":"uint256","name":"index","type":"uint256"},{"internalType":"uint256","name":"rndOffset","type":"uint256"}],"stateMutability":"view","type":"function"},{"inputs":[],"name":"keyHash","outputs":[{"internalType":"bytes32","name":"","type":"bytes32"}],"stateMutability":"view","type":"function"},{"inputs":[],"name":"lastClickTime","outputs":[{"internalType":"uint256","name":"","type":"uint256"}],"stateMutability":"view","type":"function"},{"inputs":[],"name":"lastClicker","outputs":[{"internalType":"address","name":"","type":"address"}],"stateMutability":"view","type":"function"},{"inputs":[],"name":"lastRequestId","outputs":[{"internalType":"uint256","name":"","type":"uint256"}],"stateMutability":"view","type":"function"},{"inputs":[],"name":"owner","outputs":[{"internalType":"address","name":"","type":"address"}],"stateMutability":"view","type":"function"},{"inputs":[],"name":"randomOffset","outputs":[{"internalType":"uint256","name":"","type":"uint256"}],"stateMutability":"view","type":"function"},{"inputs":[{"internalType":"uint256","name":"requestId","type":"uint256"},{"internalType":"uint256[]","name":"randomWords","type":"uint256[]"}],"name":"rawFulfillRandomWords","outputs":[],"stateMutability":"nonpayable","type":"function"},{"inputs":[],"name":"requestConfirmations","outputs":[{"internalType":"uint16","name":"","type":"uint16"}],"stateMutability":"view","type":"function"},{"inputs":[],"name":"requestRandomOffset","outputs":[{"internalType":"uint256","name":"requestId","type":"uint256"}],"stateMutability":"nonpayable","type":"function"},{"inputs":[],"name":"roundEnd","outputs":[{"internalType":"uint256","name":"","type":"uint256"}],"stateMutability":"view","type":"function"},{"inputs":[],"name":"roundIndex","outputs":[{"internalType":"uint256","name":"","type":"uint256"}],"stateMutability":"view","type":"function"},{"inputs":[],"name":"roundStart","outputs":[{"internalType":"uint256","name":"","type":"uint256"}],"stateMutability":"view","type":"function"},{"inputs":[],"name":"seed","outputs":[],"stateMutability":"payable","type":"function"},{"inputs":[{"internalType":"uint32","name":"g","type":"uint32"}],"name":"setCallbackGasLimit","outputs":[],"stateMutability":"nonpayable","type":"function"},{"inputs":[{"internalType":"uint64","name":"s","type":"uint64"}],"name":"setSubscriptionId","outputs":[],"stateMutability":"nonpayable","type":"function"},{"inputs":[],"name":"subscriptionId","outputs":[{"internalType":"uint64","name":"","type":"uint64"}],"stateMutability":"view","type":"function"},{"stateMutability":"payable","type":"receive"}],"evm":{"bytecode":{"linkReferences":{},"object":"60a060405262030d40600260006101000a81548163ffffffff021916908363ffffffff1602179055506003600260046101000a81548161ffff021916908361ffff1602179055503480156200005357600080fd5b5060405162001dab38038062001dab833981810160405281019062000079919062000325565b828073ffffffffffffffffffffffffffffffffffffffff1660808173ffffffffffffffffffffffffffffffffffffffff168152505050826000806101000a81548173ffffffffffffffffffffffffffffffffffffffff021916908373ffffffffffffffffffffffffffffffffffffffff1602179055508160018190555080600060146101000a81548167ffffffffffffffff021916908367ffffffffffffffff16021790555033600260066101000a81548173ffffffffffffffffffffffffffffffffffffffff021916908373ffffffffffffffffffffffffffffffffffffffff16021790555062000171426200017a60201b60201c565b505050620004a7565b6200018b816200021560201b60201c565b6005819055506078600554620001a29190620003ba565b600681905550610258600554620001ba919062000424565b6007819055506000600360006101000a81548173ffffffffffffffffffffffffffffffffffffffff021916908373ffffffffffffffffffffffffffffffffffffffff1602179055506000600481905550600060088190555050565b6000610258808362000228919062000424565b6200023491906200045c565b9050919050565b600080fd5b600073ffffffffffffffffffffffffffffffffffffffff82169050919050565b60006200026d8262000240565b9050919050565b6200027f8162000260565b81146200028b57600080fd5b50565b6000815190506200029f8162000274565b92915050565b6000819050919050565b620002ba81620002a5565b8114620002c657600080fd5b50565b600081519050620002da81620002af565b92915050565b600067ffffffffffffffff82169050919050565b620002ff81620002e0565b81146200030b57600080fd5b50565b6000815190506200031f81620002f4565b92915050565b6000806000606084860312156200034157620003406200023b565b5b600062000351868287016200028e565b93505060206200036486828701620002c9565b925050604062000377868287016200030e565b9150509250925092565b6000819050919050565b7f4e487b7100000000000000000000000000000000000000000000000000000000600052601160045260246000fd5b6000620003c78262000381565b9150620003d48362000381565b9250828201905080821115620003ef57620003ee6200038b565b5b92915050565b7f4e487b7100000000000000000000000000000000000000000000000000000000600052601260045260246000fd5b6000620004318262000381565b91506200043e8362000381565b925082620004515762000450620003f5565b5b828204905092915050565b6000620004698262000381565b9150620004768362000381565b9250828202620004868162000381565b91508282048414831517620004a0576200049f6200038b565b5b5092915050565b6080516118e1620004ca600039600081816104a801526104fc01526118e16000f3fe60806040526004361061012e5760003560e01c8063648036ae116100ab578063a0cd69db1161006f578063a0cd69db1461036a578063a4eb718c14610395578063b0fb162f146103be578063c02e580e146103e9578063ea7b4f7714610414578063fc2a88c31461043d57610135565b8063648036ae146102d25780637d55923d146102fd5780637d94792a1461030757806384bc76a6146103115780638da5cb5b1461033f57610135565b80633060f84b116100f25780633060f84b146101fb5780633b238f561461022657806340365852146102515780635c2b2cfa1461027c57806361728f39146102a757610135565b806309c1ba2e1461013a5780630bd8922d146101655780631fe543e314610190578063237297a4146101b957806324f74697146101d057610135565b3661013557005b600080fd5b34801561014657600080fd5b5061014f610468565b60405161015c9190610db6565b60405180910390f35b34801561017157600080fd5b5061017a610482565b6040516101879190610e50565b60405180910390f35b34801561019c57600080fd5b506101b760048036038101906101b2919061100e565b6104a6565b005b3480156101c557600080fd5b506101ce610566565b005b3480156101dc57600080fd5b506101e561083d565b6040516101f29190611089565b60405180910390f35b34801561020757600080fd5b50610210610853565b60405161021d91906110b3565b60405180910390f35b34801561023257600080fd5b5061023b6109bc565b60405161024891906110b3565b60405180910390f35b34801561025d57600080fd5b506102666109c2565b60405161027391906110b3565b60405180910390f35b34801561028857600080fd5b506102916109c8565b60405161029e91906110ef565b60405180910390f35b3480156102b357600080fd5b506102bc6109ee565b6040516102c99190611123565b60405180910390f35b3480156102de57600080fd5b506102e76109f4565b6040516102f491906110b3565b60405180910390f35b6103056109fa565b005b61030f610aff565b005b34801561031d57600080fd5b50610326610b01565b604051610336949392919061113e565b60405180910390f35b34801561034b57600080fd5b50610354610b21565b60405161036191906110ef565b60405180910390f35b34801561037657600080fd5b5061037f610b47565b60405161038c91906110b3565b60405180910390f35b3480156103a157600080fd5b506103bc60048036038101906103b791906111af565b610b4d565b005b3480156103ca57600080fd5b506103d3610bcb565b6040516103e091906111f9565b60405180910390f35b3480156103f557600080fd5b506103fe610bdf565b60405161040b91906110b3565b60405180910390f35b34801561042057600080fd5b5061043b60048036038101906104369190611240565b610be5565b005b34801561044957600080fd5b50610452610c6b565b60405161045f91906110b3565b60405180910390f35b600060149054906101000a900467ffffffffffffffff1681565b60008054906101000a900473ffffffffffffffffffffffffffffffffffffffff1681565b7f000000000000000000000000000000000000000000000000000000000000000073ffffffffffffffffffffffffffffffffffffffff163373ffffffffffffffffffffffffffffffffffffffff161461055857337f00000000000000000000000000000000000000000000000000000000000000006040517f1cf993f400000000000000000000000000000000000000000000000000000000815260040161054f92919061126d565b60405180910390fd5b6105628282610c71565b5050565b6000600854116105ab576040517f08c379a00000000000000000000000000000000000000000000000000000000081526004016105a2906112f3565b60405180910390fd5b60006008546005546105bd9190611342565b9050804211610601576040517f08c379a00000000000000000000000000000000000000000000000000000000081526004016105f8906113c2565b60405180910390fd5b6102586005546106119190611342565b4210610652576040517f08c379a00000000000000000000000000000000000000000000000000000000081526004016106499061142e565b60405180910390fd5b6000600360009054906101000a900473ffffffffffffffffffffffffffffffffffffffff169050600073ffffffffffffffffffffffffffffffffffffffff168173ffffffffffffffffffffffffffffffffffffffff16036106e8576040517f08c379a00000000000000000000000000000000000000000000000000000000081526004016106df9061149a565b60405180910390fd5b600047905060008111610730576040517f08c379a000000000000000000000000000000000000000000000000000000000815260040161072790611506565b60405180910390fd5b61073942610ce2565b60008273ffffffffffffffffffffffffffffffffffffffff168260405161075f90611557565b60006040518083038185875af1925050503d806000811461079c576040519150601f19603f3d011682016040523d82523d6000602084013e6107a1565b606091505b50509050806107e5576040517f08c379a00000000000000000000000000000000000000000000000000000000081526004016107dc906115b8565b60405180910390fd5b8273ffffffffffffffffffffffffffffffffffffffff167f634235fcf5af0adbca1a405ec65f6f6c08f55e1f379c2c45cd10f23cb29e0e318360075460405161082f9291906115d8565b60405180910390a250505050565b600260009054906101000a900463ffffffff1681565b600060065442111561089a576040517f08c379a00000000000000000000000000000000000000000000000000000000081526004016108919061164d565b60405180910390fd5b60008054906101000a900473ffffffffffffffffffffffffffffffffffffffff1673ffffffffffffffffffffffffffffffffffffffff16635d3b1d30600154600060149054906101000a900467ffffffffffffffff16600260049054906101000a900461ffff16600260009054906101000a900463ffffffff1660016040518663ffffffff1660e01b81526004016109369594939291906116a8565b6020604051808303816000875af1158015610955573d6000803e3d6000fd5b505050506040513d601f19601f820116820180604052508101906109799190611710565b9050806009819055507ff81446731d23d202ea16cf590daf64c6087251171612b2adde6acbef4b375802816040516109b191906110b3565b60405180910390a190565b60085481565b60055481565b600360009054906101000a900473ffffffffffffffffffffffffffffffffffffffff1681565b60015481565b60075481565b610258600554610a0a9190611342565b4210610a1a57610a1942610ce2565b5b6006544211610ac25733600360006101000a81548173ffffffffffffffffffffffffffffffffffffffff021916908373ffffffffffffffffffffffffffffffffffffffff160217905550426004819055503373ffffffffffffffffffffffffffffffffffffffff167f8bd221629797d0ca15bb69aa1fea119459c4ed1f3a1d739da84983f6e7da76bb42600754604051610ab59291906115d8565b60405180910390a2610afd565b6040517f08c379a0000000000000000000000000000000000000000000000000000000008152600401610af490611789565b60405180910390fd5b565b565b600080600080600554600654600754600854935093509350935090919293565b600260069054906101000a900473ffffffffffffffffffffffffffffffffffffffff1681565b60045481565b600260069054906101000a900473ffffffffffffffffffffffffffffffffffffffff1673ffffffffffffffffffffffffffffffffffffffff163373ffffffffffffffffffffffffffffffffffffffff1614610ba757600080fd5b80600260006101000a81548163ffffffff021916908363ffffffff16021790555050565b600260049054906101000a900461ffff1681565b60065481565b600260069054906101000a900473ffffffffffffffffffffffffffffffffffffffff1673ffffffffffffffffffffffffffffffffffffffff163373ffffffffffffffffffffffffffffffffffffffff1614610c3f57600080fd5b80600060146101000a81548167ffffffffffffffff021916908367ffffffffffffffff16021790555050565b60095481565b6000607882600081518110610c8957610c886117a9565b5b6020026020010151610c9b9190611807565b9050806008819055507f8f8ec3920627e72cd4e3358c8a710531fbf3f75e40a11da842da17b5b348fbaa8382604051610cd59291906115d8565b60405180910390a1505050565b610ceb81610d71565b6005819055506078600554610d009190611342565b600681905550610258600554610d169190611838565b6007819055506000600360006101000a81548173ffffffffffffffffffffffffffffffffffffffff021916908373ffffffffffffffffffffffffffffffffffffffff1602179055506000600481905550600060088190555050565b60006102588083610d829190611838565b610d8c9190611869565b9050919050565b600067ffffffffffffffff82169050919050565b610db081610d93565b82525050565b6000602082019050610dcb6000830184610da7565b92915050565b600073ffffffffffffffffffffffffffffffffffffffff82169050919050565b6000819050919050565b6000610e16610e11610e0c84610dd1565b610df1565b610dd1565b9050919050565b6000610e2882610dfb565b9050919050565b6000610e3a82610e1d565b9050919050565b610e4a81610e2f565b82525050565b6000602082019050610e656000830184610e41565b92915050565b6000604051905090565b600080fd5b600080fd5b6000819050919050565b610e9281610e7f565b8114610e9d57600080fd5b50565b600081359050610eaf81610e89565b92915050565b600080fd5b6000601f19601f8301169050919050565b7f4e487b7100000000000000000000000000000000000000000000000000000000600052604160045260246000fd5b610f0382610eba565b810181811067ffffffffffffffff82111715610f2257610f21610ecb565b5b80604052505050565b6000610f35610e6b565b9050610f418282610efa565b919050565b600067ffffffffffffffff821115610f6157610f60610ecb565b5b602082029050602081019050919050565b600080fd5b6000610f8a610f8584610f46565b610f2b565b90508083825260208201905060208402830185811115610fad57610fac610f72565b5b835b81811015610fd65780610fc28882610ea0565b845260208401935050602081019050610faf565b5050509392505050565b600082601f830112610ff557610ff4610eb5565b5b8135611005848260208601610f77565b91505092915050565b6000806040838503121561102557611024610e75565b5b600061103385828601610ea0565b925050602083013567ffffffffffffffff81111561105457611053610e7a565b5b61106085828601610fe0565b9150509250929050565b600063ffffffff82169050919050565b6110838161106a565b82525050565b600060208201905061109e600083018461107a565b92915050565b6110ad81610e7f565b82525050565b60006020820190506110c860008301846110a4565b92915050565b60006110d982610dd1565b9050919050565b6110e9816110ce565b82525050565b600060208201905061110460008301846110e0565b92915050565b6000819050919050565b61111d8161110a565b82525050565b60006020820190506111386000830184611114565b92915050565b600060808201905061115360008301876110a4565b61116060208301866110a4565b61116d60408301856110a4565b61117a60608301846110a4565b95945050505050565b61118c8161106a565b811461119757600080fd5b50565b6000813590506111a981611183565b92915050565b6000602082840312156111c5576111c4610e75565b5b60006111d38482850161119a565b91505092915050565b600061ffff82169050919050565b6111f3816111dc565b82525050565b600060208201905061120e60008301846111ea565b92915050565b61121d81610d93565b811461122857600080fd5b50565b60008135905061123a81611214565b92915050565b60006020828403121561125657611255610e75565b5b60006112648482850161122b565b91505092915050565b600060408201905061128260008301856110e0565b61128f60208301846110e0565b9392505050565b600082825260208201905092915050565b7f6e6f2072616e646f6d2073657400000000000000000000000000000000000000600082015250565b60006112dd600d83611296565b91506112e8826112a7565b602082019050919050565b6000602082019050818103600083015261130c816112d0565b9050919050565b7f4e487b7100000000000000000000000000000000000000000000000000000000600052601160045260246000fd5b600061134d82610e7f565b915061135883610e7f565b92508282019050808211156113705761136f611313565b5b92915050565b7f6163746976650000000000000000000000000000000000000000000000000000600082015250565b60006113ac600683611296565b91506113b782611376565b602082019050919050565b600060208201905081810360008301526113db8161139f565b9050919050565b7f726f756e6420726f746174656400000000000000000000000000000000000000600082015250565b6000611418600d83611296565b9150611423826113e2565b602082019050919050565b600060208201905081810360008301526114478161140b565b9050919050565b7f6e6f2077696e6e65720000000000000000000000000000000000000000000000600082015250565b6000611484600983611296565b915061148f8261144e565b602082019050919050565b600060208201905081810360008301526114b381611477565b9050919050565b7f6e6f2066756e6473000000000000000000000000000000000000000000000000600082015250565b60006114f0600883611296565b91506114fb826114ba565b602082019050919050565b6000602082019050818103600083015261151f816114e3565b9050919050565b600081905092915050565b50565b6000611541600083611526565b915061154c82611531565b600082019050919050565b600061156282611534565b9150819050919050565b7f7472616e73666572206661696c65640000000000000000000000000000000000600082015250565b60006115a2600f83611296565b91506115ad8261156c565b602082019050919050565b600060208201905081810360008301526115d181611595565b9050919050565b60006040820190506115ed60008301856110a4565b6115fa60208301846110a4565b9392505050565b7f6e6f7420696e206163746976652077696e646f77000000000000000000000000600082015250565b6000611637601483611296565b915061164282611601565b602082019050919050565b600060208201905081810360008301526116668161162a565b9050919050565b6000819050919050565b600061169261168d6116888461166d565b610df1565b61106a565b9050919050565b6116a281611677565b82525050565b600060a0820190506116bd6000830188611114565b6116ca6020830187610da7565b6116d760408301866111ea565b6116e4606083018561107a565b6116f16080830184611699565b9695505050505050565b60008151905061170a81610e89565b92915050565b60006020828403121561172657611725610e75565b5b6000611734848285016116fb565b91505092915050565b7f696e6163746976652077696e646f770000000000000000000000000000000000600082015250565b6000611773600f83611296565b915061177e8261173d565b602082019050919050565b600060208201905081810360008301526117a281611766565b9050919050565b7f4e487b7100000000000000000000000000000000000000000000000000000000600052603260045260246000fd5b7f4e487b7100000000000000000000000000000000000000000000000000000000600052601260045260246000fd5b600061181282610e7f565b915061181d83610e7f565b92508261182d5761182c6117d8565b5b828206905092915050565b600061184382610e7f565b915061184e83610e7f565b92508261185e5761185d6117d8565b5b828204905092915050565b600061187482610e7f565b915061187f83610e7f565b925082820261188d81610e7f565b915082820484148315176118a4576118a3611313565b5b509291505056fea264697066735822122055a23c5e1b03ab0c92b2789b9c7d529dcc24b06f088347eb497a5773d91b551c64736f6c63430008140033","opcodes":"PUSH1 0xA0 PUSH1 0x40 MSTORE PUSH3 0x30D40 PUSH1 0x2 PUSH1 0x0 PUSH2 0x100 EXP DUP2 SLOAD DUP2 PUSH4 0xFFFFFFFF MUL NOT AND SWAP1 DUP4 PUSH4 0xFFFFFFFF AND MUL OR SWAP1 SSTORE POP PUSH1 0x3 PUSH1 0x2 PUSH1 0x4 PUSH2 0x100 EXP DUP2 SLOAD DUP2 PUSH2 0xFFFF MUL NOT AND SWAP1 DUP4 PUSH2 0xFFFF AND MUL OR SWAP1 SSTORE POP CALLVALUE DUP1 ISZERO PUSH3 0x53 JUMPI PUSH1 0x0 DUP1 REVERT JUMPDEST POP PUSH1 0x40 MLOAD PUSH3 0x1DAB CODESIZE SUB DUP1 PUSH3 0x1DAB DUP4 CODECOPY DUP2 DUP2 ADD PUSH1 0x40 MSTORE DUP2 ADD SWAP1 PUSH3 0x79 SWAP2 SWAP1 PUSH3 0x325 JUMP JUMPDEST DUP3 DUP1 PUSH20 0xFFFFFFFFFFFFFFFFFFFFFFFFFFFFFFFFFFFFFFFF AND PUSH1 0x80 DUP2 PUSH20 0xFFFFFFFFFFFFFFFFFFFFFFFFFFFFFFFFFFFFFFFF AND DUP2 MSTORE POP POP POP DUP3 PUSH1 0x0 DUP1 PUSH2 0x100 EXP DUP2 SLOAD DUP2 PUSH20 0xFFFFFFFFFFFFFFFFFFFFFFFFFFFFFFFFFFFFFFFF MUL NOT AND SWAP1 DUP4 PUSH20 0xFFFFFFFFFFFFFFFFFFFFFFFFFFFFFFFFFFFFFFFF AND MUL OR SWAP1 SSTORE POP DUP2 PUSH1 0x1 DUP2 SWAP1 SSTORE POP DUP1 PUSH1 0x0 PUSH1 0x14 PUSH2 0x100 EXP DUP2 SLOAD DUP2 PUSH8 0xFFFFFFFFFFFFFFFF MUL NOT AND SWAP1 DUP4 PUSH8 0xFFFFFFFFFFFFFFFF AND MUL OR SWAP1 SSTORE POP CALLER PUSH1 0x2 PUSH1 0x6 PUSH2 0x100 EXP DUP2 SLOAD DUP2 PUSH20 0xFFFFFFFFFFFFFFFFFFFFFFFFFFFFFFFFFFFFFFFF MUL NOT AND SWAP1 DUP4 PUSH20 0xFFFFFFFFFFFFFFFFFFFFFFFFFFFFFFFFFFFFFFFF AND MUL OR SWAP1 SSTORE POP PUSH3 0x171 TIMESTAMP PUSH3 0x17A PUSH1 0x20 SHL PUSH1 0x20 SHR JUMP JUMPDEST POP POP POP PUSH3 0x4A7 JUMP JUMPDEST PUSH3 0x18B DUP2 PUSH3 0x215 PUSH1 0x20 SHL PUSH1 0x20 SHR JUMP JUMPDEST PUSH1 0x5 DUP2 SWAP1 SSTORE POP PUSH1 0x78 PUSH1 0x5 SLOAD PUSH3 0x1A2 SWAP2 SWAP1 PUSH3 0x3BA JUMP JUMPDEST PUSH1 0x6 DUP2 SWAP1 SSTORE POP PUSH2 0x258 PUSH1 0x5 SLOAD PUSH3 0x1BA SWAP2 SWAP1 PUSH3 0x424 JUMP JUMPDEST PUSH1 0x7 DUP2 SWAP1 SSTORE POP PUSH1 0x0 PUSH1 0x3 PUSH1 0x0 PUSH2 0x100 EXP DUP2 SLOAD DUP2 PUSH20 0xFFFFFFFFFFFFFFFFFFFFFFFFFFFFFFFFFFFFFFFF MUL NOT AND SWAP1 DUP4 PUSH20 0xFFFFFFFFFFFFFFFFFFFFFFFFFFFFFFFFFFFFFFFF AND MUL OR SWAP1 SSTORE POP PUSH1 0x0 PUSH1 0x4 DUP2 SWAP1 SSTORE POP PUSH1 0x0 PUSH1 0x8 DUP2 SWAP1 SSTORE POP POP JUMP JUMPDEST PUSH1 0x0 PUSH2 0x258 DUP1 DUP4 PUSH3 0x228 SWAP2 SWAP1 PUSH3 0x424 JUMP JUMPDEST PUSH3 0x234 SWAP2 SWAP1 PUSH3 0x45C JUMP JUMPDEST SWAP1 POP SWAP2 SWAP1 POP JUMP JUMPDEST PUSH1 0x0 DUP1 REVERT JUMPDEST PUSH1 0x0 PUSH20 0xFFFFFFFFFFFFFFFFFFFFFFFFFFFFFFFFFFFFFFFF DUP3 AND SWAP1 POP SWAP2 SWAP1 POP JUMP JUMPDEST PUSH1 0x0 PUSH3 0x26D DUP3 PUSH3 0x240 JUMP JUMPDEST SWAP1 POP SWAP2 SWAP1 POP JUMP JUMPDEST PUSH3 0x27F DUP2 PUSH3 0x260 JUMP JUMPDEST DUP2 EQ PUSH3 0x28B JUMPI PUSH1 0x0 DUP1 REVERT JUMPDEST POP JUMP JUMPDEST PUSH1 0x0 DUP2 MLOAD SWAP1 POP PUSH3 0x29F DUP2 PUSH3 0x274 JUMP JUMPDEST SWAP3 SWAP2 POP POP JUMP JUMPDEST PUSH1 0x0 DUP2 SWAP1 POP SWAP2 SWAP1 POP JUMP JUMPDEST PUSH3 0x2BA DUP2 PUSH3 0x2A5 JUMP JUMPDEST DUP2 EQ PUSH3 0x2C6 JUMPI PUSH1 0x0 DUP1 REVERT JUMPDEST POP JUMP JUMPDEST PUSH1 0x0 DUP2 MLOAD SWAP1 POP PUSH3 0x2DA DUP2 PUSH3 0x2AF JUMP JUMPDEST SWAP3 SWAP2 POP POP JUMP JUMPDEST PUSH1 0x0 PUSH8 0xFFFFFFFFFFFFFFFF DUP3 AND SWAP1 POP SWAP2 SWAP1 POP JUMP JUMPDEST PUSH3 0x2FF DUP2 PUSH3 0x2E0 JUMP JUMPDEST DUP2 EQ PUSH3 0x30B JUMPI PUSH1 0x0 DUP1 REVERT JUMPDEST POP JUMP JUMPDEST PUSH1 0x0 DUP2 MLOAD SWAP1 POP PUSH3 0x31F DUP2 PUSH3 0x2F4 JUMP JUMPDEST SWAP3 SWAP2 POP POP JUMP JUMPDEST PUSH1 0x0 DUP1 PUSH1 0x0 PUSH1 0x60 DUP5 DUP7 SUB SLT ISZERO PUSH3 0x341 JUMPI PUSH3 0x340 PUSH3 0x23B JUMP JUMPDEST JUMPDEST PUSH1 0x0 PUSH3 0x351 DUP7 DUP3 DUP8 ADD PUSH3 0x28E JUMP JUMPDEST SWAP4 POP POP PUSH1 0x20 PUSH3 0x364 DUP7 DUP3 DUP8 ADD PUSH3 0x2C9 JUMP JUMPDEST SWAP3 POP POP PUSH1 0x40 PUSH3 0x377 DUP7 DUP3 DUP8 ADD PUSH3 0x30E JUMP JUMPDEST SWAP2 POP POP SWAP3 POP SWAP3 POP SWAP3 JUMP JUMPDEST PUSH1 0x0 DUP2 SWAP1 POP SWAP2 SWAP1 POP JUMP JUMPDEST PUSH32 0x4E487B7100000000000000000000000000000000000000000000000000000000 PUSH1 0x0 MSTORE PUSH1 0x11 PUSH1 0x4 MSTORE PUSH1 0x24 PUSH1 0x0 REVERT JUMPDEST PUSH1 0x0 PUSH3 0x3C7 DUP3 PUSH3 0x381 JUMP JUMPDEST SWAP2 POP PUSH3 0x3D4 DUP4 PUSH3 0x381 JUMP JUMPDEST SWAP3 POP DUP3 DUP3 ADD SWAP1 POP DUP1 DUP3 GT ISZERO PUSH3 0x3EF JUMPI PUSH3 0x3EE PUSH3 0x38B JUMP JUMPDEST JUMPDEST SWAP3 SWAP2 POP POP JUMP JUMPDEST PUSH32 0x4E487B7100000000000000000000000000000000000000000000000000000000 PUSH1 0x0 MSTORE PUSH1 0x12 PUSH1 0x4 MSTORE PUSH1 0x24 PUSH1 0x0 REVERT JUMPDEST PUSH1 0x0 PUSH3 0x431 DUP3 PUSH3 0x381 JUMP JUMPDEST SWAP2 POP PUSH3 0x43E DUP4 PUSH3 0x381 JUMP JUMPDEST SWAP3 POP DUP3 PUSH3 0x451 JUMPI PUSH3 0x450 PUSH3 0x3F5 JUMP JUMPDEST JUMPDEST DUP3 DUP3 DIV SWAP1 POP SWAP3 SWAP2 POP POP JUMP JUMPDEST PUSH1 0x0 PUSH3 0x469 DUP3 PUSH3 0x381 JUMP JUMPDEST SWAP2 POP PUSH3 0x476 DUP4 PUSH3 0x381 JUMP JUMPDEST SWAP3 POP DUP3 DUP3 MUL PUSH3 0x486 DUP2 PUSH3 0x381 JUMP JUMPDEST SWAP2 POP DUP3 DUP3 DIV DUP5 EQ DUP4 ISZERO OR PUSH3 0x4A0 JUMPI PUSH3 0x49F PUSH3 0x38B JUMP JUMPDEST JUMPDEST POP SWAP3 SWAP2 POP POP JUMP JUMPDEST PUSH1 0x80 MLOAD PUSH2 0x18E1 PUSH3 0x4CA PUSH1 0x0 CODECOPY PUSH1 0x0 DUP2 DUP2 PUSH2 0x4A8 ADD MSTORE PUSH2 0x4FC ADD MSTORE PUSH2 0x18E1 PUSH1 0x0 RETURN INVALID PUSH1 0x80 PUSH1 0x40 MSTORE PUSH1 0x4 CALLDATASIZE LT PUSH2 0x12E JUMPI PUSH1 0x0 CALLDATALOAD PUSH1 0xE0 SHR DUP1 PUSH4 0x648036AE GT PUSH2 0xAB JUMPI DUP1 PUSH4 0xA0CD69DB GT PUSH2 0x6F JUMPI DUP1 PUSH4 0xA0CD69DB EQ PUSH2 0x36A JUMPI DUP1 PUSH4 0xA4EB718C EQ PUSH2 0x395 JUMPI DUP1 PUSH4 0xB0FB162F EQ PUSH2 0x3BE JUMPI DUP1 PUSH4 0xC02E580E EQ PUSH2 0x3E9 JUMPI DUP1 PUSH4 0xEA7B4F77 EQ PUSH2 0x414 JUMPI DUP1 PUSH4 0xFC2A88C3 EQ PUSH2 0x43D JUMPI PUSH2 0x135 JUMP JUMPDEST DUP1 PUSH4 0x648036AE EQ PUSH2 0x2D2 JUMPI DUP1 PUSH4 0x7D55923D EQ PUSH2 0x2FD JUMPI DUP1 PUSH4 0x7D94792A EQ PUSH2 0x307 JUMPI DUP1 PUSH4 0x84BC76A6 EQ PUSH2 0x311 JUMPI DUP1 PUSH4 0x8DA5CB5B EQ PUSH2 0x33F JUMPI PUSH2 0x135 JUMP JUMPDEST DUP1 PUSH4 0x3060F84B GT PUSH2 0xF2 JUMPI DUP1 PUSH4 0x3060F84B EQ PUSH2 0x1FB JUMPI DUP1 PUSH4 0x3B238F56 EQ PUSH2 0x226 JUMPI DUP1 PUSH4 0x40365852 EQ PUSH2 0x251 JUMPI DUP1 PUSH4 0x5C2B2CFA EQ PUSH2 0x27C JUMPI DUP1 PUSH4 0x61728F39 EQ PUSH2 0x2A7 JUMPI PUSH2 0x135 JUMP JUMPDEST DUP1 PUSH4 0x9C1BA2E EQ PUSH2 0x13A JUMPI DUP1 PUSH4 0xBD8922D EQ PUSH2 0x165 JUMPI DUP1 PUSH4 0x1FE543E3 EQ PUSH2 0x190 JUMPI DUP1 PUSH4 0x237297A4 EQ PUSH2 0x1B9 JUMPI DUP1 PUSH4 0x24F74697 EQ PUSH2 0x1D0 JUMPI PUSH2 0x135 JUMP JUMPDEST CALLDATASIZE PUSH2 0x135 JUMPI STOP JUMPDEST PUSH1 0x0 DUP1 REVERT JUMPDEST CALLVALUE DUP1 ISZERO PUSH2 0x146 JUMPI PUSH1 0x0 DUP1 REVERT JUMPDEST POP PUSH2 0x14F PUSH2 0x468 JUMP JUMPDEST PUSH1 0x40 MLOAD PUSH2 0x15C SWAP2 SWAP1 PUSH2 0xDB6 JUMP JUMPDEST PUSH1 0x40 MLOAD DUP1 SWAP2 SUB SWAP1 RETURN JUMPDEST CALLVALUE DUP1 ISZERO PUSH2 0x171 JUMPI PUSH1 0x0 DUP1 REVERT JUMPDEST POP PUSH2 0x17A PUSH2 0x482 JUMP JUMPDEST PUSH1 0x40 MLOAD PUSH2 0x187 SWAP2 SWAP1 PUSH2 0xE50 JUMP JUMPDEST PUSH1 0x40 MLOAD DUP1 SWAP2 SUB SWAP1 RETURN JUMPDEST CALLVALUE DUP1 ISZERO PUSH2 0x19C JUMPI PUSH1 0x0 DUP1 REVERT JUMPDEST POP PUSH2 0x1B7 PUSH1 0x4 DUP1 CALLDATASIZE SUB DUP2 ADD SWAP1 PUSH2 0x1B2 SWAP2 SWAP1 PUSH2 0x100E JUMP JUMPDEST PUSH2 0x4A6 JUMP JUMPDEST STOP JUMPDEST CALLVALUE DUP1 ISZERO PUSH2 0x1C5 JUMPI PUSH1 0x0 DUP1 REVERT JUMPDEST POP PUSH2 0x1CE PUSH2 0x566 JUMP JUMPDEST STOP JUMPDEST CALLVALUE DUP1 ISZERO PUSH2 0x1DC JUMPI PUSH1 0x0 DUP1 REVERT JUMPDEST POP PUSH2 0x1E5 PUSH2 0x83D JUMP JUMPDEST PUSH1 0x40 MLOAD PUSH2 0x1F2 SWAP2 SWAP1 PUSH2 0x1089 JUMP JUMPDEST PUSH1 0x40 MLOAD DUP1 SWAP2 SUB SWAP1 RETURN JUMPDEST CALLVALUE DUP1 ISZERO PUSH2 0x207 JUMPI PUSH1 0x0 DUP1 REVERT JUMPDEST POP PUSH2 0x210 PUSH2 0x853 JUMP JUMPDEST PUSH1 0x40 MLOAD PUSH2 0x21D SWAP2 SWAP1 PUSH2 0x10B3 JUMP JUMPDEST PUSH1 0x40 MLOAD DUP1 SWAP2 SUB SWAP1 RETURN JUMPDEST CALLVALUE DUP1 ISZERO PUSH2 0x232 JUMPI PUSH1 0x0 DUP1 REVERT JUMPDEST POP PUSH2 0x23B PUSH2 0x9BC JUMP JUMPDEST PUSH1 0x40 MLOAD PUSH2 0x248 SWAP2 SWAP1 PUSH2 0x10B3 JUMP JUMPDEST PUSH1 0x40 MLOAD DUP1 SWAP2 SUB SWAP1 RETURN JUMPDEST CALLVALUE DUP1 ISZERO PUSH2 0x25D JUMPI PUSH1 0x0 DUP1 REVERT JUMPDEST POP PUSH2 0x266 PUSH2 0x9C2 JUMP JUMPDEST PUSH1 0x40 MLOAD PUSH2 0x273 SWAP2 SWAP1 PUSH2 0x10B3 JUMP JUMPDEST PUSH1 0x40 MLOAD DUP1 SWAP2 SUB SWAP1 RETURN JUMPDEST CALLVALUE DUP1 ISZERO PUSH2 0x288 JUMPI PUSH1 0x0 DUP1 REVERT JUMPDEST POP PUSH2 0x291 PUSH2 0x9C8 JUMP JUMPDEST PUSH1 0x40 MLOAD PUSH2 0x29E SWAP2 SWAP1 PUSH2 0x10EF JUMP JUMPDEST PUSH1 0x40 MLOAD DUP1 SWAP2 SUB SWAP1 RETURN JUMPDEST CALLVALUE DUP1 ISZERO PUSH2 0x2B3 JUMPI PUSH1 0x0 DUP1 REVERT JUMPDEST POP PUSH2 0x2BC PUSH2 0x9EE JUMP JUMPDEST PUSH1 0x40 MLOAD PUSH2 0x2C9 SWAP2 SWAP1 PUSH2 0x1123 JUMP JUMPDEST PUSH1 0x40 MLOAD DUP1 SWAP2 SUB SWAP1 RETURN JUMPDEST CALLVALUE DUP1 ISZERO PUSH2 0x2DE JUMPI PUSH1 0x0 DUP1 REVERT JUMPDEST POP PUSH2 0x2E7 PUSH2 0x9F4 JUMP JUMPDEST PUSH1 0x40 MLOAD PUSH2 0x2F4 SWAP2 SWAP1 PUSH2 0x10B3 JUMP JUMPDEST PUSH1 0x40 MLOAD DUP1 SWAP2 SUB SWAP1 RETURN JUMPDEST PUSH2 0x305 PUSH2 0x9FA JUMP JUMPDEST STOP JUMPDEST PUSH2 0x30F PUSH2 0xAFF JUMP JUMPDEST STOP JUMPDEST CALLVALUE DUP1 ISZERO PUSH2 0x31D JUMPI PUSH1 0x0 DUP1 REVERT JUMPDEST POP PUSH2 0x326 PUSH2 0xB01 JUMP JUMPDEST PUSH1 0x40 MLOAD PUSH2 0x336 SWAP5 SWAP4 SWAP3 SWAP2 SWAP1 PUSH2 0x113E JUMP JUMPDEST PUSH1 0x40 MLOAD DUP1 SWAP2 SUB SWAP1 RETURN JUMPDEST CALLVALUE DUP1 ISZERO PUSH2 0x34B JUMPI PUSH1 0x0 DUP1 REVERT JUMPDEST POP PUSH2 0x354 PUSH2 0xB21 JUMP JUMPDEST PUSH1 0x40 MLOAD PUSH2 0x361 SWAP2 SWAP1 PUSH2 0x10EF JUMP JUMPDEST PUSH1 0x40 MLOAD DUP1 SWAP2 SUB SWAP1 RETURN JUMPDEST CALLVALUE DUP1 ISZERO PUSH2 0x376 JUMPI PUSH1 0x0 DUP1 REVERT JUMPDEST POP PUSH2 0x37F PUSH2 0xB47 JUMP JUMPDEST PUSH1 0x40 MLOAD PUSH2 0x38C SWAP2 SWAP1 PUSH2 0x10B3 JUMP JUMPDEST PUSH1 0x40 MLOAD DUP1 SWAP2 SUB SWAP1 RETURN JUMPDEST CALLVALUE DUP1 ISZERO PUSH2 0x3A1 JUMPI PUSH1 0x0 DUP1 REVERT JUMPDEST POP PUSH2 0x3BC PUSH1 0x4 DUP1 CALLDATASIZE SUB DUP2 ADD SWAP1 PUSH2 0x3B7 SWAP2 SWAP1 PUSH2 0x11AF JUMP JUMPDEST PUSH2 0xB4D JUMP JUMPDEST STOP JUMPDEST CALLVALUE DUP1 ISZERO PUSH2 0x3CA JUMPI PUSH1 0x0 DUP1 REVERT JUMPDEST POP PUSH2 0x3D3 PUSH2 0xBCB JUMP JUMPDEST PUSH1 0x40 MLOAD PUSH2 0x3E0 SWAP2 SWAP1 PUSH2 0x11F9 JUMP JUMPDEST PUSH1 0x40 MLOAD DUP1 SWAP2 SUB SWAP1 RETURN JUMPDEST CALLVALUE DUP1 ISZERO PUSH2 0x3F5 JUMPI PUSH1 0x0 DUP1 REVERT JUMPDEST POP PUSH2 0x3FE PUSH2 0xBDF JUMP JUMPDEST PUSH1 0x40 MLOAD PUSH2 0x40B SWAP2 SWAP1 PUSH2 0x10B3 JUMP JUMPDEST PUSH1 0x40 MLOAD DUP1 SWAP2 SUB SWAP1 RETURN JUMPDEST CALLVALUE DUP1 ISZERO PUSH2 0x420 JUMPI PUSH1 0x0 DUP1 REVERT JUMPDEST POP PUSH2 0x43B PUSH1 0x4 DUP1 CALLDATASIZE SUB DUP2 ADD SWAP1 PUSH2 0x436 SWAP2 SWAP1 PUSH2 0x1240 JUMP JUMPDEST PUSH2 0xBE5 JUMP JUMPDEST STOP JUMPDEST CALLVALUE DUP1 ISZERO PUSH2 0x449 JUMPI PUSH1 0x0 DUP1 REVERT JUMPDEST POP PUSH2 0x452 PUSH2 0xC6B JUMP JUMPDEST PUSH1 0x40 MLOAD PUSH2 0x45F SWAP2 SWAP1 PUSH2 0x10B3 JUMP JUMPDEST PUSH1 0x40 MLOAD DUP1 SWAP2 SUB SWAP1 RETURN JUMPDEST PUSH1 0x0 PUSH1 0x14 SWAP1 SLOAD SWAP1 PUSH2 0x100 EXP SWAP1 DIV PUSH8 0xFFFFFFFFFFFFFFFF AND DUP2 JUMP JUMPDEST PUSH1 0x0 DUP1 SLOAD SWAP1 PUSH2 0x100 EXP SWAP1 DIV PUSH20 0xFFFFFFFFFFFFFFFFFFFFFFFFFFFFFFFFFFFFFFFF AND DUP2 JUMP JUMPDEST PUSH32 0x0 PUSH20 0xFFFFFFFFFFFFFFFFFFFFFFFFFFFFFFFFFFFFFFFF AND CALLER PUSH20 0xFFFFFFFFFFFFFFFFFFFFFFFFFFFFFFFFFFFFFFFF AND EQ PUSH2 0x558 JUMPI CALLER PUSH32 0x0 PUSH1 0x40 MLOAD PUSH32 0x1CF993F400000000000000000000000000000000000000000000000000000000 DUP2 MSTORE PUSH1 0x4 ADD PUSH2 0x54F SWAP3 SWAP2 SWAP1 PUSH2 0x126D JUMP JUMPDEST PUSH1 0x40 MLOAD DUP1 SWAP2 SUB SWAP1 REVERT JUMPDEST PUSH2 0x562 DUP3 DUP3 PUSH2 0xC71 JUMP JUMPDEST POP POP JUMP JUMPDEST PUSH1 0x0 PUSH1 0x8 SLOAD GT PUSH2 0x5AB JUMPI PUSH1 0x40 MLOAD PUSH32 0x8C379A000000000000000000000000000000000000000000000000000000000 DUP2 MSTORE PUSH1 0x4 ADD PUSH2 0x5A2 SWAP1 PUSH2 0x12F3 JUMP JUMPDEST PUSH1 0x40 MLOAD DUP1 SWAP2 SUB SWAP1 REVERT JUMPDEST PUSH1 0x0 PUSH1 0x8 SLOAD PUSH1 0x5 SLOAD PUSH2 0x5BD SWAP2 SWAP1 PUSH2 0x1342 JUMP JUMPDEST SWAP1 POP DUP1 TIMESTAMP GT PUSH2 0x601 JUMPI PUSH1 0x40 MLOAD PUSH32 0x8C379A000000000000000000000000000000000000000000000000000000000 DUP2 MSTORE PUSH1 0x4 ADD PUSH2 0x5F8 SWAP1 PUSH2 0x13C2 JUMP JUMPDEST PUSH1 0x40 MLOAD DUP1 SWAP2 SUB SWAP1 REVERT JUMPDEST PUSH2 0x258 PUSH1 0x5 SLOAD PUSH2 0x611 SWAP2 SWAP1 PUSH2 0x1342 JUMP JUMPDEST TIMESTAMP LT PUSH2 0x652 JUMPI PUSH1 0x40 MLOAD PUSH32 0x8C379A000000000000000000000000000000000000000000000000000000000 DUP2 MSTORE PUSH1 0x4 ADD PUSH2 0x649 SWAP1 PUSH2 0x142E JUMP JUMPDEST PUSH1 0x40 MLOAD DUP1 SWAP2 SUB SWAP1 REVERT JUMPDEST PUSH1 0x0 PUSH1 0x3 PUSH1 0x0 SWAP1 SLOAD SWAP1 PUSH2 0x100 EXP SWAP1 DIV PUSH20 0xFFFFFFFFFFFFFFFFFFFFFFFFFFFFFFFFFFFFFFFF AND SWAP1 POP PUSH1 0x0 PUSH20 0xFFFFFFFFFFFFFFFFFFFFFFFFFFFFFFFFFFFFFFFF AND DUP2 PUSH20 0xFFFFFFFFFFFFFFFFFFFFFFFFFFFFFFFFFFFFFFFF AND SUB PUSH2 0x6E8 JUMPI PUSH1 0x40 MLOAD PUSH32 0x8C379A000000000000000000000000000000000000000000000000000000000 DUP2 MSTORE PUSH1 0x4 ADD PUSH2 0x6DF SWAP1 PUSH2 0x149A JUMP JUMPDEST PUSH1 0x40 MLOAD DUP1 SWAP2 SUB SWAP1 REVERT JUMPDEST PUSH1 0x0 SELFBALANCE SWAP1 POP PUSH1 0x0 DUP2 GT PUSH2 0x730 JUMPI PUSH1 0x40 MLOAD PUSH32 0x8C379A000000000000000000000000000000000000000000000000000000000 DUP2 MSTORE PUSH1 0x4 ADD PUSH2 0x727 SWAP1 PUSH2 0x1506 JUMP JUMPDEST PUSH1 0x40 MLOAD DUP1 SWAP2 SUB SWAP1 REVERT JUMPDEST PUSH2 0x739 TIMESTAMP PUSH2 0xCE2 JUMP JUMPDEST PUSH1 0x0 DUP3 PUSH20 0xFFFFFFFFFFFFFFFFFFFFFFFFFFFFFFFFFFFFFFFF AND DUP3 PUSH1 0x40 MLOAD PUSH2 0x75F SWAP1 PUSH2 0x1557 JUMP JUMPDEST PUSH1 0x0 PUSH1 0x40 MLOAD DUP1 DUP4 SUB DUP2 DUP6 DUP8 GAS CALL SWAP3 POP POP POP RETURNDATASIZE DUP1 PUSH1 0x0 DUP2 EQ PUSH2 0x79C JUMPI PUSH1 0x40 MLOAD SWAP2 POP PUSH1 0x1F NOT PUSH1 0x3F RETURNDATASIZE ADD AND DUP3 ADD PUSH1 0x40 MSTORE RETURNDATASIZE DUP3 MSTORE RETURNDATASIZE PUSH1 0x0 PUSH1 0x20 DUP5 ADD RETURNDATACOPY PUSH2 0x7A1 JUMP JUMPDEST PUSH1 0x60 SWAP2 POP JUMPDEST POP POP SWAP1 POP DUP1 PUSH2 0x7E5 JUMPI PUSH1 0x40 MLOAD PUSH32 0x8C379A000000000000000000000000000000000000000000000000000000000 DUP2 MSTORE PUSH1 0x4 ADD PUSH2 0x7DC SWAP1 PUSH2 0x15B8 JUMP JUMPDEST PUSH1 0x40 MLOAD DUP1 SWAP2 SUB SWAP1 REVERT JUMPDEST DUP3 PUSH20 0xFFFFFFFFFFFFFFFFFFFFFFFFFFFFFFFFFFFFFFFF AND PUSH32 0x634235FCF5AF0ADBCA1A405EC65F6F6C08F55E1F379C2C45CD10F23CB29E0E31 DUP4 PUSH1 0x7 SLOAD PUSH1 0x40 MLOAD PUSH2 0x82F SWAP3 SWAP2 SWAP1 PUSH2 0x15D8 JUMP JUMPDEST PUSH1 0x40 MLOAD DUP1 SWAP2 SUB SWAP1 LOG2 POP POP POP POP JUMP JUMPDEST PUSH1 0x2 PUSH1 0x0 SWAP1 SLOAD SWAP1 PUSH2 0x100 EXP SWAP1 DIV PUSH4 0xFFFFFFFF AND DUP2 JUMP JUMPDEST PUSH1 0x0 PUSH1 0x6 SLOAD TIMESTAMP GT ISZERO PUSH2 0x89A JUMPI PUSH1 0x40 MLOAD PUSH32 0x8C379A000000000000000000000000000000000000000000000000000000000 DUP2 MSTORE PUSH1 0x4 ADD PUSH2 0x891 SWAP1 PUSH2 0x164D JUMP JUMPDEST PUSH1 0x40 MLOAD DUP1 SWAP2 SUB SWAP1 REVERT JUMPDEST PUSH1 0x0 DUP1 SLOAD SWAP1 PUSH2 0x100 EXP SWAP1 DIV PUSH20 0xFFFFFFFFFFFFFFFFFFFFFFFFFFFFFFFFFFFFFFFF AND PUSH20 0xFFFFFFFFFFFFFFFFFFFFFFFFFFFFFFFFFFFFFFFF AND PUSH4 0x5D3B1D30 PUSH1 0x1 SLOAD PUSH1 0x0 PUSH1 0x14 SWAP1 SLOAD SWAP1 PUSH2 0x100 EXP SWAP1 DIV PUSH8 0xFFFFFFFFFFFFFFFF AND PUSH1 0x2 PUSH1 0x4 SWAP1 SLOAD SWAP1 PUSH2 0x100 EXP SWAP1 DIV PUSH2 0xFFFF AND PUSH1 0x2 PUSH1 0x0 SWAP1 SLOAD SWAP1 PUSH2 0x100 EXP SWAP1 DIV PUSH4 0xFFFFFFFF AND PUSH1 0x1 PUSH1 0x40 MLOAD DUP7 PUSH4 0xFFFFFFFF AND PUSH1 0xE0 SHL DUP2 MSTORE PUSH1 0x4 ADD PUSH2 0x936 SWAP6 SWAP5 SWAP4 SWAP3 SWAP2 SWAP1 PUSH2 0x16A8 JUMP JUMPDEST PUSH1 0x20 PUSH1 0x40 MLOAD DUP1 DUP4 SUB DUP2 PUSH1 0x0 DUP8 GAS CALL ISZERO DUP1 ISZERO PUSH2 0x955 JUMPI RETURNDATASIZE PUSH1 0x0 DUP1 RETURNDATACOPY RETURNDATASIZE PUSH1 0x0 REVERT JUMPDEST POP POP POP POP PUSH1 0x40 MLOAD RETURNDATASIZE PUSH1 0x1F NOT PUSH1 0x1F DUP3 ADD AND DUP3 ADD DUP1 PUSH1 0x40 MSTORE POP DUP2 ADD SWAP1 PUSH2 0x979 SWAP2 SWAP1 PUSH2 0x1710 JUMP JUMPDEST SWAP1 POP DUP1 PUSH1 0x9 DUP2 SWAP1 SSTORE POP PUSH32 0xF81446731D23D202EA16CF590DAF64C6087251171612B2ADDE6ACBEF4B375802 DUP2 PUSH1 0x40 MLOAD PUSH2 0x9B1 SWAP2 SWAP1 PUSH2 0x10B3 JUMP JUMPDEST PUSH1 0x40 MLOAD DUP1 SWAP2 SUB SWAP1 LOG1 SWAP1 JUMP JUMPDEST PUSH1 0x8 SLOAD DUP2 JUMP JUMPDEST PUSH1 0x5 SLOAD DUP2 JUMP JUMPDEST PUSH1 0x3 PUSH1 0x0 SWAP1 SLOAD SWAP1 PUSH2 0x100 EXP SWAP1 DIV PUSH20 0xFFFFFFFFFFFFFFFFFFFFFFFFFFFFFFFFFFFFFFFF AND DUP2 JUMP JUMPDEST PUSH1 0x1 SLOAD DUP2 JUMP JUMPDEST PUSH1 0x7 SLOAD DUP2 JUMP JUMPDEST PUSH2 0x258 PUSH1 0x5 SLOAD PUSH2 0xA0A SWAP2 SWAP1 PUSH2 0x1342 JUMP JUMPDEST TIMESTAMP LT PUSH2 0xA1A JUMPI PUSH2 0xA19 TIMESTAMP PUSH2 0xCE2 JUMP JUMPDEST JUMPDEST PUSH1 0x6 SLOAD TIMESTAMP GT PUSH2 0xAC2 JUMPI CALLER PUSH1 0x3 PUSH1 0x0 PUSH2 0x100 EXP DUP2 SLOAD DUP2 PUSH20 0xFFFFFFFFFFFFFFFFFFFFFFFFFFFFFFFFFFFFFFFF MUL NOT AND SWAP1 DUP4 PUSH20 0xFFFFFFFFFFFFFFFFFFFFFFFFFFFFFFFFFFFFFFFF AND MUL OR SWAP1 SSTORE POP TIMESTAMP PUSH1 0x4 DUP2 SWAP1 SSTORE POP CALLER PUSH20 0xFFFFFFFFFFFFFFFFFFFFFFFFFFFFFFFFFFFFFFFF AND PUSH32 0x8BD221629797D0CA15BB69AA1FEA119459C4ED1F3A1D739DA84983F6E7DA76BB TIMESTAMP PUSH1 0x7 SLOAD PUSH1 0x40 MLOAD PUSH2 0xAB5 SWAP3 SWAP2 SWAP1 PUSH2 0x15D8 JUMP JUMPDEST PUSH1 0x40 MLOAD DUP1 SWAP2 SUB SWAP1 LOG2 PUSH2 0xAFD JUMP JUMPDEST PUSH1 0x40 MLOAD PUSH32 0x8C379A000000000000000000000000000000000000000000000000000000000 DUP2 MSTORE PUSH1 0x4 ADD PUSH2 0xAF4 SWAP1 PUSH2 0x1789 JUMP JUMPDEST PUSH1 0x40 MLOAD DUP1 SWAP2 SUB SWAP1 REVERT JUMPDEST JUMP JUMPDEST JUMP JUMPDEST PUSH1 0x0 DUP1 PUSH1 0x0 DUP1 PUSH1 0x5 SLOAD PUSH1 0x6 SLOAD PUSH1 0x7 SLOAD PUSH1 0x8 SLOAD SWAP4 POP SWAP4 POP SWAP4 POP SWAP4 POP SWAP1 SWAP2 SWAP3 SWAP4 JUMP JUMPDEST PUSH1 0x2 PUSH1 0x6 SWAP1 SLOAD SWAP1 PUSH2 0x100 EXP SWAP1 DIV PUSH20 0xFFFFFFFFFFFFFFFFFFFFFFFFFFFFFFFFFFFFFFFF AND DUP2 JUMP JUMPDEST PUSH1 0x4 SLOAD DUP2 JUMP JUMPDEST PUSH1 0x2 PUSH1 0x6 SWAP1 SLOAD SWAP1 PUSH2 0x100 EXP SWAP1 DIV PUSH20 0xFFFFFFFFFFFFFFFFFFFFFFFFFFFFFFFFFFFFFFFF AND PUSH20 0xFFFFFFFFFFFFFFFFFFFFFFFFFFFFFFFFFFFFFFFF AND CALLER PUSH20 0xFFFFFFFFFFFFFFFFFFFFFFFFFFFFFFFFFFFFFFFF AND EQ PUSH2 0xBA7 JUMPI PUSH1 0x0 DUP1 REVERT JUMPDEST DUP1 PUSH1 0x2 PUSH1 0x0 PUSH2 0x100 EXP DUP2 SLOAD DUP2 PUSH4 0xFFFFFFFF MUL NOT AND SWAP1 DUP4 PUSH4 0xFFFFFFFF AND MUL OR SWAP1 SSTORE POP POP JUMP JUMPDEST PUSH1 0x2 PUSH1 0x4 SWAP1 SLOAD SWAP1 PUSH2 0x100 EXP SWAP1 DIV PUSH2 0xFFFF AND DUP2 JUMP JUMPDEST PUSH1 0x6 SLOAD DUP2 JUMP JUMPDEST PUSH1 0x2 PUSH1 0x6 SWAP1 SLOAD SWAP1 PUSH2 0x100 EXP SWAP1 DIV PUSH20 0xFFFFFFFFFFFFFFFFFFFFFFFFFFFFFFFFFFFFFFFF AND PUSH20 0xFFFFFFFFFFFFFFFFFFFFFFFFFFFFFFFFFFFFFFFF AND CALLER PUSH20 0xFFFFFFFFFFFFFFFFFFFFFFFFFFFFFFFFFFFFFFFF AND EQ PUSH2 0xC3F JUMPI PUSH1 0x0 DUP1 REVERT JUMPDEST DUP1 PUSH1 0x0 PUSH1 0x14 PUSH2 0x100 EXP DUP2 SLOAD DUP2 PUSH8 0xFFFFFFFFFFFFFFFF MUL NOT AND SWAP1 DUP4 PUSH8 0xFFFFFFFFFFFFFFFF AND MUL OR SWAP1 SSTORE POP POP JUMP JUMPDEST PUSH1 0x9 SLOAD DUP2 JUMP JUMPDEST PUSH1 0x0 PUSH1 0x78 DUP3 PUSH1 0x0 DUP2 MLOAD DUP2 LT PUSH2 0xC89 JUMPI PUSH2 0xC88 PUSH2 0x17A9 JUMP JUMPDEST JUMPDEST PUSH1 0x20 MUL PUSH1 0x20 ADD ADD MLOAD PUSH2 0xC9B SWAP2 SWAP1 PUSH2 0x1807 JUMP JUMPDEST SWAP1 POP DUP1 PUSH1 0x8 DUP2 SWAP1 SSTORE POP PUSH32 0x8F8EC3920627E72CD4E3358C8A710531FBF3F75E40A11DA842DA17B5B348FBAA DUP4 DUP3 PUSH1 0x40 MLOAD PUSH2 0xCD5 SWAP3 SWAP2 SWAP1 PUSH2 0x15D8 JUMP JUMPDEST PUSH1 0x40 MLOAD DUP1 SWAP2 SUB SWAP1 LOG1 POP POP POP JUMP JUMPDEST PUSH2 0xCEB DUP2 PUSH2 0xD71 JUMP JUMPDEST PUSH1 0x5 DUP2 SWAP1 SSTORE POP PUSH1 0x78 PUSH1 0x5 SLOAD PUSH2 0xD00 SWAP2 SWAP1 PUSH2 0x1342 JUMP JUMPDEST PUSH1 0x6 DUP2 SWAP1 SSTORE POP PUSH2 0x258 PUSH1 0x5 SLOAD PUSH2 0xD16 SWAP2 SWAP1 PUSH2 0x1838 JUMP JUMPDEST PUSH1 0x7 DUP2 SWAP1 SSTORE POP PUSH1 0x0 PUSH1 0x3 PUSH1 0x0 PUSH2 0x100 EXP DUP2 SLOAD DUP2 PUSH20 0xFFFFFFFFFFFFFFFFFFFFFFFFFFFFFFFFFFFFFFFF MUL NOT AND SWAP1 DUP4 PUSH20 0xFFFFFFFFFFFFFFFFFFFFFFFFFFFFFFFFFFFFFFFF AND MUL OR SWAP1 SSTORE POP PUSH1 0x0 PUSH1 0x4 DUP2 SWAP1 SSTORE POP PUSH1 0x0 PUSH1 0x8 DUP2 SWAP1 SSTORE POP POP JUMP JUMPDEST PUSH1 0x0 PUSH2 0x258 DUP1 DUP4 PUSH2 0xD82 SWAP2 SWAP1 PUSH2 0x1838 JUMP JUMPDEST PUSH2 0xD8C SWAP2 SWAP1 PUSH2 0x1869 JUMP JUMPDEST SWAP1 POP SWAP2 SWAP1 POP JUMP JUMPDEST PUSH1 0x0 PUSH8 0xFFFFFFFFFFFFFFFF DUP3 AND SWAP1 POP SWAP2 SWAP1 POP JUMP JUMPDEST PUSH2 0xDB0 DUP2 PUSH2 0xD93 JUMP JUMPDEST DUP3 MSTORE POP POP JUMP JUMPDEST PUSH1 0x0 PUSH1 0x20 DUP3 ADD SWAP1 POP PUSH2 0xDCB PUSH1 0x0 DUP4 ADD DUP5 PUSH2 0xDA7 JUMP JUMPDEST SWAP3 SWAP2 POP POP JUMP JUMPDEST PUSH1 0x0 PUSH20 0xFFFFFFFFFFFFFFFFFFFFFFFFFFFFFFFFFFFFFFFF DUP3 AND SWAP1 POP SWAP2 SWAP1 POP JUMP JUMPDEST PUSH1 0x0 DUP2 SWAP1 POP SWAP2 SWAP1 POP JUMP JUMPDEST PUSH1 0x0 PUSH2 0xE16 PUSH2 0xE11 PUSH2 0xE0C DUP5 PUSH2 0xDD1 JUMP JUMPDEST PUSH2 0xDF1 JUMP JUMPDEST PUSH2 0xDD1 JUMP JUMPDEST SWAP1 POP SWAP2 SWAP1 POP JUMP JUMPDEST PUSH1 0x0 PUSH2 0xE28 DUP3 PUSH2 0xDFB JUMP JUMPDEST SWAP1 POP SWAP2 SWAP1 POP JUMP JUMPDEST PUSH1 0x0 PUSH2 0xE3A DUP3 PUSH2 0xE1D JUMP JUMPDEST SWAP1 POP SWAP2 SWAP1 POP JUMP JUMPDEST PUSH2 0xE4A DUP2 PUSH2 0xE2F JUMP JUMPDEST DUP3 MSTORE POP POP JUMP JUMPDEST PUSH1 0x0 PUSH1 0x20 DUP3 ADD SWAP1 POP PUSH2 0xE65 PUSH1 0x0 DUP4 ADD DUP5 PUSH2 0xE41 JUMP JUMPDEST SWAP3 SWAP2 POP POP JUMP JUMPDEST PUSH1 0x0 PUSH1 0x40 MLOAD SWAP1 POP SWAP1 JUMP JUMPDEST PUSH1 0x0 DUP1 REVERT JUMPDEST PUSH1 0x0 DUP1 REVERT JUMPDEST PUSH1 0x0 DUP2 SWAP1 POP SWAP2 SWAP1 POP JUMP JUMPDEST PUSH2 0xE92 DUP2 PUSH2 0xE7F JUMP JUMPDEST DUP2 EQ PUSH2 0xE9D JUMPI PUSH1 0x0 DUP1 REVERT JUMPDEST POP JUMP JUMPDEST PUSH1 0x0 DUP2 CALLDATALOAD SWAP1 POP PUSH2 0xEAF DUP2 PUSH2 0xE89 JUMP JUMPDEST SWAP3 SWAP2 POP POP JUMP JUMPDEST PUSH1 0x0 DUP1 REVERT JUMPDEST PUSH1 0x0 PUSH1 0x1F NOT PUSH1 0x1F DUP4 ADD AND SWAP1 POP SWAP2 SWAP1 POP JUMP JUMPDEST PUSH32 0x4E487B7100000000000000000000000000000000000000000000000000000000 PUSH1 0x0 MSTORE PUSH1 0x41 PUSH1 0x4 MSTORE PUSH1 0x24 PUSH1 0x0 REVERT JUMPDEST PUSH2 0xF03 DUP3 PUSH2 0xEBA JUMP JUMPDEST DUP2 ADD DUP2 DUP2 LT PUSH8 0xFFFFFFFFFFFFFFFF DUP3 GT OR ISZERO PUSH2 0xF22 JUMPI PUSH2 0xF21 PUSH2 0xECB JUMP JUMPDEST JUMPDEST DUP1 PUSH1 0x40 MSTORE POP POP POP JUMP JUMPDEST PUSH1 0x0 PUSH2 0xF35 PUSH2 0xE6B JUMP JUMPDEST SWAP1 POP PUSH2 0xF41 DUP3 DUP3 PUSH2 0xEFA JUMP JUMPDEST SWAP2 SWAP1 POP JUMP JUMPDEST PUSH1 0x0 PUSH8 0xFFFFFFFFFFFFFFFF DUP3 GT ISZERO PUSH2 0xF61 JUMPI PUSH2 0xF60 PUSH2 0xECB JUMP JUMPDEST JUMPDEST PUSH1 0x20 DUP3 MUL SWAP1 POP PUSH1 0x20 DUP2 ADD SWAP1 POP SWAP2 SWAP1 POP JUMP JUMPDEST PUSH1 0x0 DUP1 REVERT JUMPDEST PUSH1 0x0 PUSH2 0xF8A PUSH2 0xF85 DUP5 PUSH2 0xF46 JUMP JUMPDEST PUSH2 0xF2B JUMP JUMPDEST SWAP1 POP DUP1 DUP4 DUP3 MSTORE PUSH1 0x20 DUP3 ADD SWAP1 POP PUSH1 0x20 DUP5 MUL DUP4 ADD DUP6 DUP2 GT ISZERO PUSH2 0xFAD JUMPI PUSH2 0xFAC PUSH2 0xF72 JUMP JUMPDEST JUMPDEST DUP4 JUMPDEST DUP2 DUP2 LT ISZERO PUSH2 0xFD6 JUMPI DUP1 PUSH2 0xFC2 DUP9 DUP3 PUSH2 0xEA0 JUMP JUMPDEST DUP5 MSTORE PUSH1 0x20 DUP5 ADD SWAP4 POP POP PUSH1 0x20 DUP2 ADD SWAP1 POP PUSH2 0xFAF JUMP JUMPDEST POP POP POP SWAP4 SWAP3 POP POP POP JUMP JUMPDEST PUSH1 0x0 DUP3 PUSH1 0x1F DUP4 ADD SLT PUSH2 0xFF5 JUMPI PUSH2 0xFF4 PUSH2 0xEB5 JUMP JUMPDEST JUMPDEST DUP2 CALLDATALOAD PUSH2 0x1005 DUP5 DUP3 PUSH1 0x20 DUP7 ADD PUSH2 0xF77 JUMP JUMPDEST SWAP2 POP POP SWAP3 SWAP2 POP POP JUMP JUMPDEST PUSH1 0x0 DUP1 PUSH1 0x40 DUP4 DUP6 SUB SLT ISZERO PUSH2 0x1025 JUMPI PUSH2 0x1024 PUSH2 0xE75 JUMP JUMPDEST JUMPDEST PUSH1 0x0 PUSH2 0x1033 DUP6 DUP3 DUP7 ADD PUSH2 0xEA0 JUMP JUMPDEST SWAP3 POP POP PUSH1 0x20 DUP4 ADD CALLDATALOAD PUSH8 0xFFFFFFFFFFFFFFFF DUP2 GT ISZERO PUSH2 0x1054 JUMPI PUSH2 0x1053 PUSH2 0xE7A JUMP JUMPDEST JUMPDEST PUSH2 0x1060 DUP6 DUP3 DUP7 ADD PUSH2 0xFE0 JUMP JUMPDEST SWAP2 POP POP SWAP3 POP SWAP3 SWAP1 POP JUMP JUMPDEST PUSH1 0x0 PUSH4 0xFFFFFFFF DUP3 AND SWAP1 POP SWAP2 SWAP1 POP JUMP JUMPDEST PUSH2 0x1083 DUP2 PUSH2 0x106A JUMP JUMPDEST DUP3 MSTORE POP POP JUMP JUMPDEST PUSH1 0x0 PUSH1 0x20 DUP3 ADD SWAP1 POP PUSH2 0x109E PUSH1 0x0 DUP4 ADD DUP5 PUSH2 0x107A JUMP JUMPDEST SWAP3 SWAP2 POP POP JUMP JUMPDEST PUSH2 0x10AD DUP2 PUSH2 0xE7F JUMP JUMPDEST DUP3 MSTORE POP POP JUMP JUMPDEST PUSH1 0x0 PUSH1 0x20 DUP3 ADD SWAP1 POP PUSH2 0x10C8 PUSH1 0x0 DUP4 ADD DUP5 PUSH2 0x10A4 JUMP JUMPDEST SWAP3 SWAP2 POP POP JUMP JUMPDEST PUSH1 0x0 PUSH2 0x10D9 DUP3 PUSH2 0xDD1 JUMP JUMPDEST SWAP1 POP SWAP2 SWAP1 POP JUMP JUMPDEST PUSH2 0x10E9 DUP2 PUSH2 0x10CE JUMP JUMPDEST DUP3 MSTORE POP POP JUMP JUMPDEST PUSH1 0x0 PUSH1 0x20 DUP3 ADD SWAP1 POP PUSH2 0x1104 PUSH1 0x0 DUP4 ADD DUP5 PUSH2 0x10E0 JUMP JUMPDEST SWAP3 SWAP2 POP POP JUMP JUMPDEST PUSH1 0x0 DUP2 SWAP1 POP SWAP2 SWAP1 POP JUMP JUMPDEST PUSH2 0x111D DUP2 PUSH2 0x110A JUMP JUMPDEST DUP3 MSTORE POP POP JUMP JUMPDEST PUSH1 0x0 PUSH1 0x20 DUP3 ADD SWAP1 POP PUSH2 0x1138 PUSH1 0x0 DUP4 ADD DUP5 PUSH2 0x1114 JUMP JUMPDEST SWAP3 SWAP2 POP POP JUMP JUMPDEST PUSH1 0x0 PUSH1 0x80 DUP3 ADD SWAP1 POP PUSH2 0x1153 PUSH1 0x0 DUP4 ADD DUP8 PUSH2 0x10A4 JUMP JUMPDEST PUSH2 0x1160 PUSH1 0x20 DUP4 ADD DUP7 PUSH2 0x10A4 JUMP JUMPDEST PUSH2 0x116D PUSH1 0x40 DUP4 ADD DUP6 PUSH2 0x10A4 JUMP JUMPDEST PUSH2 0x117A PUSH1 0x60 DUP4 ADD DUP5 PUSH2 0x10A4 JUMP JUMPDEST SWAP6 SWAP5 POP POP POP POP POP JUMP JUMPDEST PUSH2 0x118C DUP2 PUSH2 0x106A JUMP JUMPDEST DUP2 EQ PUSH2 0x1197 JUMPI PUSH1 0x0 DUP1 REVERT JUMPDEST POP JUMP JUMPDEST PUSH1 0x0 DUP2 CALLDATALOAD SWAP1 POP PUSH2 0x11A9 DUP2 PUSH2 0x1183 JUMP JUMPDEST SWAP3 SWAP2 POP POP JUMP JUMPDEST PUSH1 0x0 PUSH1 0x20 DUP3 DUP5 SUB SLT ISZERO PUSH2 0x11C5 JUMPI PUSH2 0x11C4 PUSH2 0xE75 JUMP JUMPDEST JUMPDEST PUSH1 0x0 PUSH2 0x11D3 DUP5 DUP3 DUP6 ADD PUSH2 0x119A JUMP JUMPDEST SWAP2 POP POP SWAP3 SWAP2 POP POP JUMP JUMPDEST PUSH1 0x0 PUSH2 0xFFFF DUP3 AND SWAP1 POP SWAP2 SWAP1 POP JUMP JUMPDEST PUSH2 0x11F3 DUP2 PUSH2 0x11DC JUMP JUMPDEST DUP3 MSTORE POP POP JUMP JUMPDEST PUSH1 0x0 PUSH1 0x20 DUP3 ADD SWAP1 POP PUSH2 0x120E PUSH1 0x0 DUP4 ADD DUP5 PUSH2 0x11EA JUMP JUMPDEST SWAP3 SWAP2 POP POP JUMP JUMPDEST PUSH2 0x121D DUP2 PUSH2 0xD93 JUMP JUMPDEST DUP2 EQ PUSH2 0x1228 JUMPI PUSH1 0x0 DUP1 REVERT JUMPDEST POP JUMP JUMPDEST PUSH1 0x0 DUP2 CALLDATALOAD SWAP1 POP PUSH2 0x123A DUP2 PUSH2 0x1214 JUMP JUMPDEST SWAP3 SWAP2 POP POP JUMP JUMPDEST PUSH1 0x0 PUSH1 0x20 DUP3 DUP5 SUB SLT ISZERO PUSH2 0x1256 JUMPI PUSH2 0x1255 PUSH2 0xE75 JUMP JUMPDEST JUMPDEST PUSH1 0x0 PUSH2 0x1264 DUP5 DUP3 DUP6 ADD PUSH2 0x122B JUMP JUMPDEST SWAP2 POP POP SWAP3 SWAP2 POP POP JUMP JUMPDEST PUSH1 0x0 PUSH1 0x40 DUP3 ADD SWAP1 POP PUSH2 0x1282 PUSH1 0x0 DUP4 ADD DUP6 PUSH2 0x10E0 JUMP JUMPDEST PUSH2 0x128F PUSH1 0x20 DUP4 ADD DUP5 PUSH2 0x10E0 JUMP JUMPDEST SWAP4 SWAP3 POP POP POP JUMP JUMPDEST PUSH1 0x0 DUP3 DUP3 MSTORE PUSH1 0x20 DUP3 ADD SWAP1 POP SWAP3 SWAP2 POP POP JUMP JUMPDEST PUSH32 0x6E6F2072616E646F6D2073657400000000000000000000000000000000000000 PUSH1 0x0 DUP3 ADD MSTORE POP JUMP JUMPDEST PUSH1 0x0 PUSH2 0x12DD PUSH1 0xD DUP4 PUSH2 0x1296 JUMP JUMPDEST SWAP2 POP PUSH2 0x12E8 DUP3 PUSH2 0x12A7 JUMP JUMPDEST PUSH1 0x20 DUP3 ADD SWAP1 POP SWAP2 SWAP1 POP JUMP JUMPDEST PUSH1 0x0 PUSH1 0x20 DUP3 ADD SWAP1 POP DUP2 DUP2 SUB PUSH1 0x0 DUP4 ADD MSTORE PUSH2 0x130C DUP2 PUSH2 0x12D0 JUMP JUMPDEST SWAP1 POP SWAP2 SWAP1 POP JUMP JUMPDEST PUSH32 0x4E487B7100000000000000000000000000000000000000000000000000000000 PUSH1 0x0 MSTORE PUSH1 0x11 PUSH1 0x4 MSTORE PUSH1 0x24 PUSH1 0x0 REVERT JUMPDEST PUSH1 0x0 PUSH2 0x134D DUP3 PUSH2 0xE7F JUMP JUMPDEST SWAP2 POP PUSH2 0x1358 DUP4 PUSH2 0xE7F JUMP JUMPDEST SWAP3 POP DUP3 DUP3 ADD SWAP1 POP DUP1 DUP3 GT ISZERO PUSH2 0x1370 JUMPI PUSH2 0x136F PUSH2 0x1313 JUMP JUMPDEST JUMPDEST SWAP3 SWAP2 POP POP JUMP JUMPDEST PUSH32 0x6163746976650000000000000000000000000000000000000000000000000000 PUSH1 0x0 DUP3 ADD MSTORE POP JUMP JUMPDEST PUSH1 0x0 PUSH2 0x13AC PUSH1 0x6 DUP4 PUSH2 0x1296 JUMP JUMPDEST SWAP2 POP PUSH2 0x13B7 DUP3 PUSH2 0x1376 JUMP JUMPDEST PUSH1 0x20 DUP3 ADD SWAP1 POP SWAP2 SWAP1 POP JUMP JUMPDEST PUSH1 0x0 PUSH1 0x20 DUP3 ADD SWAP1 POP DUP2 DUP2 SUB PUSH1 0x0 DUP4 ADD MSTORE PUSH2 0x13DB DUP2 PUSH2 0x139F JUMP JUMPDEST SWAP1 POP SWAP2 SWAP1 POP JUMP JUMPDEST PUSH32 0x726F756E6420726F746174656400000000000000000000000000000000000000 PUSH1 0x0 DUP3 ADD MSTORE POP JUMP JUMPDEST PUSH1 0x0 PUSH2 0x1418 PUSH1 0xD DUP4 PUSH2 0x1296 JUMP JUMPDEST SWAP2 POP PUSH2 0x1423 DUP3 PUSH2 0x13E2 JUMP JUMPDEST PUSH1 0x20 DUP3 ADD SWAP1 POP SWAP2 SWAP1 POP JUMP JUMPDEST PUSH1 0x0 PUSH1 0x20 DUP3 ADD SWAP1 POP DUP2 DUP2 SUB PUSH1 0x0 DUP4 ADD MSTORE PUSH2 0x1447 DUP2 PUSH2 0x140B JUMP JUMPDEST SWAP1 POP SWAP2 SWAP1 POP JUMP JUMPDEST PUSH32 0x6E6F2077696E6E65720000000000000000000000000000000000000000000000 PUSH1 0x0 DUP3 ADD MSTORE POP JUMP JUMPDEST PUSH1 0x0 PUSH2 0x1484 PUSH1 0x9 DUP4 PUSH2 0x1296 JUMP JUMPDEST SWAP2 POP PUSH2 0x148F DUP3 PUSH2 0x144E JUMP JUMPDEST PUSH1 0x20 DUP3 ADD SWAP1 POP SWAP2 SWAP1 POP JUMP JUMPDEST PUSH1 0x0 PUSH1 0x20 DUP3 ADD SWAP1 POP DUP2 DUP2 SUB PUSH1 0x0 DUP4 ADD MSTORE PUSH2 0x14B3 DUP2 PUSH2 0x1477 JUMP JUMPDEST SWAP1 POP SWAP2 SWAP1 POP JUMP JUMPDEST PUSH32 0x6E6F2066756E6473000000000000000000000000000000000000000000000000 PUSH1 0x0 DUP3 ADD MSTORE POP JUMP JUMPDEST PUSH1 0x0 PUSH2 0x14F0 PUSH1 0x8 DUP4 PUSH2 0x1296 JUMP JUMPDEST SWAP2 POP PUSH2 0x14FB DUP3 PUSH2 0x14BA JUMP JUMPDEST PUSH1 0x20 DUP3 ADD SWAP1 POP SWAP2 SWAP1 POP JUMP JUMPDEST PUSH1 0x0 PUSH1 0x20 DUP3 ADD SWAP1 POP DUP2 DUP2 SUB PUSH1 0x0 DUP4 ADD MSTORE PUSH2 0x151F DUP2 PUSH2 0x14E3 JUMP JUMPDEST SWAP1 POP SWAP2 SWAP1 POP JUMP JUMPDEST PUSH1 0x0 DUP2 SWAP1 POP SWAP3 SWAP2 POP POP JUMP JUMPDEST POP JUMP JUMPDEST PUSH1 0x0 PUSH2 0x1541 PUSH1 0x0 DUP4 PUSH2 0x1526 JUMP JUMPDEST SWAP2 POP PUSH2 0x154C DUP3 PUSH2 0x1531 JUMP JUMPDEST PUSH1 0x0 DUP3 ADD SWAP1 POP SWAP2 SWAP1 POP JUMP JUMPDEST PUSH1 0x0 PUSH2 0x1562 DUP3 PUSH2 0x1534 JUMP JUMPDEST SWAP2 POP DUP2 SWAP1 POP SWAP2 SWAP1 POP JUMP JUMPDEST PUSH32 0x7472616E73666572206661696C65640000000000000000000000000000000000 PUSH1 0x0 DUP3 ADD MSTORE POP JUMP JUMPDEST PUSH1 0x0 PUSH2 0x15A2 PUSH1 0xF DUP4 PUSH2 0x1296 JUMP JUMPDEST SWAP2 POP PUSH2 0x15AD DUP3 PUSH2 0x156C JUMP JUMPDEST PUSH1 0x20 DUP3 ADD SWAP1 POP SWAP2 SWAP1 POP JUMP JUMPDEST PUSH1 0x0 PUSH1 0x20 DUP3 ADD SWAP1 POP DUP2 DUP2 SUB PUSH1 0x0 DUP4 ADD MSTORE PUSH2 0x15D1 DUP2 PUSH2 0x1595 JUMP JUMPDEST SWAP1 POP SWAP2 SWAP1 POP JUMP JUMPDEST PUSH1 0x0 PUSH1 0x40 DUP3 ADD SWAP1 POP PUSH2 0x15ED PUSH1 0x0 DUP4 ADD DUP6 PUSH2 0x10A4 JUMP JUMPDEST PUSH2 0x15FA PUSH1 0x20 DUP4 ADD DUP5 PUSH2 0x10A4 JUMP JUMPDEST SWAP4 SWAP3 POP POP POP JUMP JUMPDEST PUSH32 0x6E6F7420696E206163746976652077696E646F77000000000000000000000000 PUSH1 0x0 DUP3 ADD MSTORE POP JUMP JUMPDEST PUSH1 0x0 PUSH2 0x1637 PUSH1 0x14 DUP4 PUSH2 0x1296 JUMP JUMPDEST SWAP2 POP PUSH2 0x1642 DUP3 PUSH2 0x1601 JUMP JUMPDEST PUSH1 0x20 DUP3 ADD SWAP1 POP SWAP2 SWAP1 POP JUMP JUMPDEST PUSH1 0x0 PUSH1 0x20 DUP3 ADD SWAP1 POP DUP2 DUP2 SUB PUSH1 0x0 DUP4 ADD MSTORE PUSH2 0x1666 DUP2 PUSH2 0x162A JUMP JUMPDEST SWAP1 POP SWAP2 SWAP1 POP JUMP JUMPDEST PUSH1 0x0 DUP2 SWAP1 POP SWAP2 SWAP1 POP JUMP JUMPDEST PUSH1 0x0 PUSH2 0x1692 PUSH2 0x168D PUSH2 0x1688 DUP5 PUSH2 0x166D JUMP JUMPDEST PUSH2 0xDF1 JUMP JUMPDEST PUSH2 0x106A JUMP JUMPDEST SWAP1 POP SWAP2 SWAP1 POP JUMP JUMPDEST PUSH2 0x16A2 DUP2 PUSH2 0x1677 JUMP JUMPDEST DUP3 MSTORE POP POP JUMP JUMPDEST PUSH1 0x0 PUSH1 0xA0 DUP3 ADD SWAP1 POP PUSH2 0x16BD PUSH1 0x0 DUP4 ADD DUP9 PUSH2 0x1114 JUMP JUMPDEST PUSH2 0x16CA PUSH1 0x20 DUP4 ADD DUP8 PUSH2 0xDA7 JUMP JUMPDEST PUSH2 0x16D7 PUSH1 0x40 DUP4 ADD DUP7 PUSH2 0x11EA JUMP JUMPDEST PUSH2 0x16E4 PUSH1 0x60 DUP4 ADD DUP6 PUSH2 0x107A JUMP JUMPDEST PUSH2 0x16F1 PUSH1 0x80 DUP4 ADD DUP5 PUSH2 0x1699 JUMP JUMPDEST SWAP7 SWAP6 POP POP POP POP POP POP JUMP JUMPDEST PUSH1 0x0 DUP2 MLOAD SWAP1 POP PUSH2 0x170A DUP2 PUSH2 0xE89 JUMP JUMPDEST SWAP3 SWAP2 POP POP JUMP JUMPDEST PUSH1 0x0 PUSH1 0x20 DUP3 DUP5 SUB SLT ISZERO PUSH2 0x1726 JUMPI PUSH2 0x1725 PUSH2 0xE75 JUMP JUMPDEST JUMPDEST PUSH1 0x0 PUSH2 0x1734 DUP5 DUP3 DUP6 ADD PUSH2 0x16FB JUMP JUMPDEST SWAP2 POP POP SWAP3 SWAP2 POP POP JUMP JUMPDEST PUSH32 0x696E6163746976652077696E646F770000000000000000000000000000000000 PUSH1 0x0 DUP3 ADD MSTORE POP JUMP JUMPDEST PUSH1 0x0 PUSH2 0x1773 PUSH1 0xF DUP4 PUSH2 0x1296 JUMP JUMPDEST SWAP2 POP PUSH2 0x177E DUP3 PUSH2 0x173D JUMP JUMPDEST PUSH1 0x20 DUP3 ADD SWAP1 POP SWAP2 SWAP1 POP JUMP JUMPDEST PUSH1 0x0 PUSH1 0x20 DUP3 ADD SWAP1 POP DUP2 DUP2 SUB PUSH1 0x0 DUP4 ADD MSTORE PUSH2 0x17A2 DUP2 PUSH2 0x1766 JUMP JUMPDEST SWAP1 POP SWAP2 SWAP1 POP JUMP JUMPDEST PUSH32 0x4E487B7100000000000000000000000000000000000000000000000000000000 PUSH1 0x0 MSTORE PUSH1 0x32 PUSH1 0x4 MSTORE PUSH1 0x24 PUSH1 0x0 REVERT JUMPDEST PUSH32 0x4E487B7100000000000000000000000000000000000000000000000000000000 PUSH1 0x0 MSTORE PUSH1 0x12 PUSH1 0x4 MSTORE PUSH1 0x24 PUSH1 0x0 REVERT JUMPDEST PUSH1 0x0 PUSH2 0x1812 DUP3 PUSH2 0xE7F JUMP JUMPDEST SWAP2 POP PUSH2 0x181D DUP4 PUSH2 0xE7F JUMP JUMPDEST SWAP3 POP DUP3 PUSH2 0x182D JUMPI PUSH2 0x182C PUSH2 0x17D8 JUMP JUMPDEST JUMPDEST DUP3 DUP3 MOD SWAP1 POP SWAP3 SWAP2 POP POP JUMP JUMPDEST PUSH1 0x0 PUSH2 0x1843 DUP3 PUSH2 0xE7F JUMP JUMPDEST SWAP2 POP PUSH2 0x184E DUP4 PUSH2 0xE7F JUMP JUMPDEST SWAP3 POP DUP3 PUSH2 0x185E JUMPI PUSH2 0x185D PUSH2 0x17D8 JUMP JUMPDEST JUMPDEST DUP3 DUP3 DIV SWAP1 POP SWAP3 SWAP2 POP POP JUMP JUMPDEST PUSH1 0x0 PUSH2 0x1874 DUP3 PUSH2 0xE7F JUMP JUMPDEST SWAP2 POP PUSH2 0x187F DUP4 PUSH2 0xE7F JUMP JUMPDEST SWAP3 POP DUP3 DUP3 MUL PUSH2 0x188D DUP2 PUSH2 0xE7F JUMP JUMPDEST SWAP2 POP DUP3 DUP3 DIV DUP5 EQ DUP4 ISZERO OR PUSH2 0x18A4 JUMPI PUSH2 0x18A3 PUSH2 0x1313 JUMP JUMPDEST JUMPDEST POP SWAP3 SWAP2 POP POP JUMP INVALID LOG2 PUSH5 0x6970667358 0x22 SLT KECCAK256 SSTORE LOG2 EXTCODECOPY 0x5E SHL SUB 0xAB 0xC SWAP3 0xB2 PUSH25 0x9B9C7D529DCC24B06F088347EB497A5773D91B551C64736F6C PUSH4 0x43000814 STOP CALLER "},"methodIdentifiers":{"COORD()":"0bd8922d","callbackGasLimit()":"24f74697","claimWinner()":"237297a4","click()":"7d55923d","getRoundInfo()":"84bc76a6","keyHash()":"61728f39","lastClickTime()":"a0cd69db","lastClicker()":"5c2b2cfa","lastRequestId()":"fc2a88c3","owner()":"8da5cb5b","randomOffset()":"3b238f56","rawFulfillRandomWords(uint256,uint256[])":"1fe543e3","requestConfirmations()":"b0fb162f","requestRandomOffset()":"3060f84b","roundEnd()":"c02e580e","roundIndex()":"648036ae","roundStart()":"40365852","seed()":"7d94792a","setCallbackGasLimit(uint32)":"a4eb718c","setSubscriptionId(uint64)":"ea7b4f77","subscriptionId()":"09c1ba2e"}}}}}